{
	"contracts/ccip/Sender.sol": {
		"Sender": {
			"abi": [
				{
					"inputs": [
						{
							"internalType": "address",
							"name": "_link",
							"type": "address"
						},
						{
							"internalType": "address",
							"name": "_router",
							"type": "address"
						}
					],
					"stateMutability": "nonpayable",
					"type": "constructor"
				},
				{
					"inputs": [
						{
							"internalType": "uint64",
							"name": "destinationChainSelector",
							"type": "uint64"
						}
					],
					"name": "DestinationChainNotAllowlisted",
					"type": "error"
				},
				{
					"inputs": [],
					"name": "InvalidReceiverAddress",
					"type": "error"
				},
				{
					"inputs": [
						{
							"internalType": "uint256",
							"name": "balance",
							"type": "uint256"
						},
						{
							"internalType": "uint256",
							"name": "fee",
							"type": "uint256"
						}
					],
					"name": "NotEnoughMoney",
					"type": "error"
				},
				{
					"anonymous": false,
					"inputs": [
						{
							"indexed": true,
							"internalType": "address",
							"name": "previousOwner",
							"type": "address"
						},
						{
							"indexed": true,
							"internalType": "address",
							"name": "newOwner",
							"type": "address"
						}
					],
					"name": "OwnershipTransferred",
					"type": "event"
				},
				{
					"anonymous": false,
					"inputs": [
						{
							"indexed": true,
							"internalType": "bytes32",
							"name": "proposalId",
							"type": "bytes32"
						},
						{
							"indexed": true,
							"internalType": "uint64",
							"name": "destinationChainSelector",
							"type": "uint64"
						},
						{
							"indexed": false,
							"internalType": "address",
							"name": "receiver",
							"type": "address"
						},
						{
							"indexed": false,
							"internalType": "bool",
							"name": "amount",
							"type": "bool"
						},
						{
							"indexed": false,
							"internalType": "address",
							"name": "feeToken",
							"type": "address"
						},
						{
							"indexed": false,
							"internalType": "uint256",
							"name": "fee",
							"type": "uint256"
						}
					],
					"name": "ProposalSent",
					"type": "event"
				},
				{
					"inputs": [
						{
							"internalType": "uint64",
							"name": "",
							"type": "uint64"
						}
					],
					"name": "allowlistedChains",
					"outputs": [
						{
							"internalType": "bool",
							"name": "",
							"type": "bool"
						}
					],
					"stateMutability": "view",
					"type": "function"
				},
				{
					"inputs": [],
					"name": "owner",
					"outputs": [
						{
							"internalType": "address",
							"name": "",
							"type": "address"
						}
					],
					"stateMutability": "view",
					"type": "function"
				},
				{
					"inputs": [],
					"name": "renounceOwnership",
					"outputs": [],
					"stateMutability": "nonpayable",
					"type": "function"
				},
				{
					"inputs": [
						{
							"internalType": "uint64",
							"name": "destinationChainSelector",
							"type": "uint64"
						},
						{
							"internalType": "address",
							"name": "receiver",
							"type": "address"
						},
						{
							"internalType": "bool",
							"name": "vote",
							"type": "bool"
						}
					],
					"name": "send_message",
					"outputs": [
						{
							"internalType": "bytes32",
							"name": "messageId",
							"type": "bytes32"
						}
					],
					"stateMutability": "nonpayable",
					"type": "function"
				},
				{
					"inputs": [
						{
							"internalType": "address",
							"name": "newOwner",
							"type": "address"
						}
					],
					"name": "transferOwnership",
					"outputs": [],
					"stateMutability": "nonpayable",
					"type": "function"
				}
			],
			"devdoc": {
				"kind": "dev",
				"methods": {
					"owner()": {
						"details": "Returns the address of the current owner."
					},
					"renounceOwnership()": {
						"details": "Leaves the contract without owner. It will not be possible to call `onlyOwner` functions anymore. Can only be called by the current owner. NOTE: Renouncing ownership will leave the contract without an owner, thereby removing any functionality that is only available to the owner."
					},
					"transferOwnership(address)": {
						"details": "Transfers ownership of the contract to a new account (`newOwner`). Can only be called by the current owner."
					}
				},
				"version": 1
			},
			"evm": {
				"assembly": "    /* \"contracts/ccip/Sender.sol\":415:2855  contract Sender is Ownable {... */\n  mstore(0x40, 0x80)\n    /* \"contracts/ccip/Sender.sol\":1014:1157  constructor(address _link, address _router) {... */\n  callvalue\n  dup1\n  iszero\n  tag_1\n  jumpi\n  0x00\n  dup1\n  revert\ntag_1:\n  pop\n  mload(0x40)\n  sub(codesize, bytecodeSize)\n  dup1\n  bytecodeSize\n  dup4\n  codecopy\n  dup2\n  dup2\n  add\n  0x40\n  mstore\n  dup2\n  add\n  swap1\n  tag_2\n  swap2\n  swap1\n  tag_3\n  jump\t// in\ntag_2:\n    /* \"@openzeppelin/contracts/access/Ownable.sol\":867:890  _setOwner(_msgSender()) */\n  tag_7\n    /* \"@openzeppelin/contracts/access/Ownable.sol\":877:889  _msgSender() */\n  tag_8\n    /* \"@openzeppelin/contracts/access/Ownable.sol\":877:887  _msgSender */\n  shl(0x20, tag_9)\n    /* \"@openzeppelin/contracts/access/Ownable.sol\":877:889  _msgSender() */\n  0x20\n  shr\n  jump\t// in\ntag_8:\n    /* \"@openzeppelin/contracts/access/Ownable.sol\":867:876  _setOwner */\n  shl(0x20, tag_10)\n    /* \"@openzeppelin/contracts/access/Ownable.sol\":867:890  _setOwner(_msgSender()) */\n  0x20\n  shr\n  jump\t// in\ntag_7:\n    /* \"contracts/ccip/Sender.sol\":1101:1106  _link */\n  dup2\n    /* \"contracts/ccip/Sender.sol\":1068:1079  s_linkToken */\n  0x01\n  0x00\n    /* \"contracts/ccip/Sender.sol\":1068:1107  s_linkToken = LinkTokenInterface(_link) */\n  0x0100\n  exp\n  dup2\n  sload\n  dup2\n  0xffffffffffffffffffffffffffffffffffffffff\n  mul\n  not\n  and\n  swap1\n  dup4\n  0xffffffffffffffffffffffffffffffffffffffff\n  and\n  mul\n  or\n  swap1\n  sstore\n  pop\n    /* \"contracts/ccip/Sender.sol\":1142:1149  _router */\n  dup1\n    /* \"contracts/ccip/Sender.sol\":1117:1125  s_router */\n  0x02\n  0x00\n    /* \"contracts/ccip/Sender.sol\":1117:1150  s_router = IRouterClient(_router) */\n  0x0100\n  exp\n  dup2\n  sload\n  dup2\n  0xffffffffffffffffffffffffffffffffffffffff\n  mul\n  not\n  and\n  swap1\n  dup4\n  0xffffffffffffffffffffffffffffffffffffffff\n  and\n  mul\n  or\n  swap1\n  sstore\n  pop\n    /* \"contracts/ccip/Sender.sol\":1014:1157  constructor(address _link, address _router) {... */\n  pop\n  pop\n    /* \"contracts/ccip/Sender.sol\":415:2855  contract Sender is Ownable {... */\n  jump(tag_12)\n    /* \"@openzeppelin/contracts/utils/Context.sol\":587:683  function _msgSender() internal view virtual returns (address) {... */\ntag_9:\n    /* \"@openzeppelin/contracts/utils/Context.sol\":640:647  address */\n  0x00\n    /* \"@openzeppelin/contracts/utils/Context.sol\":666:676  msg.sender */\n  caller\n    /* \"@openzeppelin/contracts/utils/Context.sol\":659:676  return msg.sender */\n  swap1\n  pop\n    /* \"@openzeppelin/contracts/utils/Context.sol\":587:683  function _msgSender() internal view virtual returns (address) {... */\n  swap1\n  jump\t// out\n    /* \"@openzeppelin/contracts/access/Ownable.sol\":2041:2210  function _setOwner(address newOwner) private {... */\ntag_10:\n    /* \"@openzeppelin/contracts/access/Ownable.sol\":2096:2112  address oldOwner */\n  0x00\n    /* \"@openzeppelin/contracts/access/Ownable.sol\":2115:2121  _owner */\n  dup1\n  0x00\n  swap1\n  sload\n  swap1\n  0x0100\n  exp\n  swap1\n  div\n  0xffffffffffffffffffffffffffffffffffffffff\n  and\n    /* \"@openzeppelin/contracts/access/Ownable.sol\":2096:2121  address oldOwner = _owner */\n  swap1\n  pop\n    /* \"@openzeppelin/contracts/access/Ownable.sol\":2140:2148  newOwner */\n  dup2\n    /* \"@openzeppelin/contracts/access/Ownable.sol\":2131:2137  _owner */\n  0x00\n  dup1\n    /* \"@openzeppelin/contracts/access/Ownable.sol\":2131:2148  _owner = newOwner */\n  0x0100\n  exp\n  dup2\n  sload\n  dup2\n  0xffffffffffffffffffffffffffffffffffffffff\n  mul\n  not\n  and\n  swap1\n  dup4\n  0xffffffffffffffffffffffffffffffffffffffff\n  and\n  mul\n  or\n  swap1\n  sstore\n  pop\n    /* \"@openzeppelin/contracts/access/Ownable.sol\":2194:2202  newOwner */\n  dup2\n    /* \"@openzeppelin/contracts/access/Ownable.sol\":2163:2203  OwnershipTransferred(oldOwner, newOwner) */\n  0xffffffffffffffffffffffffffffffffffffffff\n  and\n    /* \"@openzeppelin/contracts/access/Ownable.sol\":2184:2192  oldOwner */\n  dup2\n    /* \"@openzeppelin/contracts/access/Ownable.sol\":2163:2203  OwnershipTransferred(oldOwner, newOwner) */\n  0xffffffffffffffffffffffffffffffffffffffff\n  and\n  0x8be0079c531659141344cd1fd0a4f28419497f9722a3daafe3b4186f6b6457e0\n  mload(0x40)\n  mload(0x40)\n  dup1\n  swap2\n  sub\n  swap1\n  log3\n    /* \"@openzeppelin/contracts/access/Ownable.sol\":2086:2210  {... */\n  pop\n    /* \"@openzeppelin/contracts/access/Ownable.sol\":2041:2210  function _setOwner(address newOwner) private {... */\n  pop\n  jump\t// out\n    /* \"#utility.yul\":88:205   */\ntag_16:\n    /* \"#utility.yul\":197:198   */\n  0x00\n    /* \"#utility.yul\":194:195   */\n  dup1\n    /* \"#utility.yul\":187:199   */\n  revert\n    /* \"#utility.yul\":334:460   */\ntag_18:\n    /* \"#utility.yul\":371:378   */\n  0x00\n    /* \"#utility.yul\":411:453   */\n  0xffffffffffffffffffffffffffffffffffffffff\n    /* \"#utility.yul\":404:409   */\n  dup3\n    /* \"#utility.yul\":400:454   */\n  and\n    /* \"#utility.yul\":389:454   */\n  swap1\n  pop\n    /* \"#utility.yul\":334:460   */\n  swap2\n  swap1\n  pop\n  jump\t// out\n    /* \"#utility.yul\":466:562   */\ntag_19:\n    /* \"#utility.yul\":503:510   */\n  0x00\n    /* \"#utility.yul\":532:556   */\n  tag_28\n    /* \"#utility.yul\":550:555   */\n  dup3\n    /* \"#utility.yul\":532:556   */\n  tag_18\n  jump\t// in\ntag_28:\n    /* \"#utility.yul\":521:556   */\n  swap1\n  pop\n    /* \"#utility.yul\":466:562   */\n  swap2\n  swap1\n  pop\n  jump\t// out\n    /* \"#utility.yul\":568:690   */\ntag_20:\n    /* \"#utility.yul\":641:665   */\n  tag_30\n    /* \"#utility.yul\":659:664   */\n  dup2\n    /* \"#utility.yul\":641:665   */\n  tag_19\n  jump\t// in\ntag_30:\n    /* \"#utility.yul\":634:639   */\n  dup2\n    /* \"#utility.yul\":631:666   */\n  eq\n    /* \"#utility.yul\":621:684   */\n  tag_31\n  jumpi\n    /* \"#utility.yul\":680:681   */\n  0x00\n    /* \"#utility.yul\":677:678   */\n  dup1\n    /* \"#utility.yul\":670:682   */\n  revert\n    /* \"#utility.yul\":621:684   */\ntag_31:\n    /* \"#utility.yul\":568:690   */\n  pop\n  jump\t// out\n    /* \"#utility.yul\":696:839   */\ntag_21:\n    /* \"#utility.yul\":753:758   */\n  0x00\n    /* \"#utility.yul\":784:790   */\n  dup2\n    /* \"#utility.yul\":778:791   */\n  mload\n    /* \"#utility.yul\":769:791   */\n  swap1\n  pop\n    /* \"#utility.yul\":800:833   */\n  tag_33\n    /* \"#utility.yul\":827:832   */\n  dup2\n    /* \"#utility.yul\":800:833   */\n  tag_20\n  jump\t// in\ntag_33:\n    /* \"#utility.yul\":696:839   */\n  swap3\n  swap2\n  pop\n  pop\n  jump\t// out\n    /* \"#utility.yul\":845:1352   */\ntag_3:\n    /* \"#utility.yul\":924:930   */\n  0x00\n    /* \"#utility.yul\":932:938   */\n  dup1\n    /* \"#utility.yul\":981:983   */\n  0x40\n    /* \"#utility.yul\":969:978   */\n  dup4\n    /* \"#utility.yul\":960:967   */\n  dup6\n    /* \"#utility.yul\":956:979   */\n  sub\n    /* \"#utility.yul\":952:984   */\n  slt\n    /* \"#utility.yul\":949:1068   */\n  iszero\n  tag_35\n  jumpi\n    /* \"#utility.yul\":987:1066   */\n  tag_36\n  tag_16\n  jump\t// in\ntag_36:\n    /* \"#utility.yul\":949:1068   */\ntag_35:\n    /* \"#utility.yul\":1107:1108   */\n  0x00\n    /* \"#utility.yul\":1132:1196   */\n  tag_37\n    /* \"#utility.yul\":1188:1195   */\n  dup6\n    /* \"#utility.yul\":1179:1185   */\n  dup3\n    /* \"#utility.yul\":1168:1177   */\n  dup7\n    /* \"#utility.yul\":1164:1186   */\n  add\n    /* \"#utility.yul\":1132:1196   */\n  tag_21\n  jump\t// in\ntag_37:\n    /* \"#utility.yul\":1122:1196   */\n  swap3\n  pop\n    /* \"#utility.yul\":1078:1206   */\n  pop\n    /* \"#utility.yul\":1245:1247   */\n  0x20\n    /* \"#utility.yul\":1271:1335   */\n  tag_38\n    /* \"#utility.yul\":1327:1334   */\n  dup6\n    /* \"#utility.yul\":1318:1324   */\n  dup3\n    /* \"#utility.yul\":1307:1316   */\n  dup7\n    /* \"#utility.yul\":1303:1325   */\n  add\n    /* \"#utility.yul\":1271:1335   */\n  tag_21\n  jump\t// in\ntag_38:\n    /* \"#utility.yul\":1261:1335   */\n  swap2\n  pop\n    /* \"#utility.yul\":1216:1345   */\n  pop\n    /* \"#utility.yul\":845:1352   */\n  swap3\n  pop\n  swap3\n  swap1\n  pop\n  jump\t// out\n    /* \"contracts/ccip/Sender.sol\":415:2855  contract Sender is Ownable {... */\ntag_12:\n  dataSize(sub_0)\n  dup1\n  dataOffset(sub_0)\n  0x00\n  codecopy\n  0x00\n  return\nstop\n\nsub_0: assembly {\n        /* \"contracts/ccip/Sender.sol\":415:2855  contract Sender is Ownable {... */\n      mstore(0x40, 0x80)\n      callvalue\n      dup1\n      iszero\n      tag_1\n      jumpi\n      0x00\n      dup1\n      revert\n    tag_1:\n      pop\n      jumpi(tag_2, lt(calldatasize, 0x04))\n      shr(0xe0, calldataload(0x00))\n      dup1\n      0x0bb106eb\n      eq\n      tag_3\n      jumpi\n      dup1\n      0x715018a6\n      eq\n      tag_4\n      jumpi\n      dup1\n      0x8da5cb5b\n      eq\n      tag_5\n      jumpi\n      dup1\n      0xf2fde38b\n      eq\n      tag_6\n      jumpi\n      dup1\n      0xf4a786e4\n      eq\n      tag_7\n      jumpi\n    tag_2:\n      0x00\n      dup1\n      revert\n        /* \"contracts/ccip/Sender.sol\":958:1006  mapping(uint64 => bool) public allowlistedChains */\n    tag_3:\n      tag_8\n      0x04\n      dup1\n      calldatasize\n      sub\n      dup2\n      add\n      swap1\n      tag_9\n      swap2\n      swap1\n      tag_10\n      jump\t// in\n    tag_9:\n      tag_11\n      jump\t// in\n    tag_8:\n      mload(0x40)\n      tag_12\n      swap2\n      swap1\n      tag_13\n      jump\t// in\n    tag_12:\n      mload(0x40)\n      dup1\n      swap2\n      sub\n      swap1\n      return\n        /* \"@openzeppelin/contracts/access/Ownable.sol\":1605:1697  function renounceOwnership() public virtual onlyOwner {... */\n    tag_4:\n      tag_14\n      tag_15\n      jump\t// in\n    tag_14:\n      stop\n        /* \"@openzeppelin/contracts/access/Ownable.sol\":973:1058  function owner() public view virtual returns (address) {... */\n    tag_5:\n      tag_16\n      tag_17\n      jump\t// in\n    tag_16:\n      mload(0x40)\n      tag_18\n      swap2\n      swap1\n      tag_19\n      jump\t// in\n    tag_18:\n      mload(0x40)\n      dup1\n      swap2\n      sub\n      swap1\n      return\n        /* \"@openzeppelin/contracts/access/Ownable.sol\":1846:2035  function transferOwnership(address newOwner) public virtual onlyOwner {... */\n    tag_6:\n      tag_20\n      0x04\n      dup1\n      calldatasize\n      sub\n      dup2\n      add\n      swap1\n      tag_21\n      swap2\n      swap1\n      tag_22\n      jump\t// in\n    tag_21:\n      tag_23\n      jump\t// in\n    tag_20:\n      stop\n        /* \"contracts/ccip/Sender.sol\":1528:2851  function send_message (... */\n    tag_7:\n      tag_24\n      0x04\n      dup1\n      calldatasize\n      sub\n      dup2\n      add\n      swap1\n      tag_25\n      swap2\n      swap1\n      tag_26\n      jump\t// in\n    tag_25:\n      tag_27\n      jump\t// in\n    tag_24:\n      mload(0x40)\n      tag_28\n      swap2\n      swap1\n      tag_29\n      jump\t// in\n    tag_28:\n      mload(0x40)\n      dup1\n      swap2\n      sub\n      swap1\n      return\n        /* \"contracts/ccip/Sender.sol\":958:1006  mapping(uint64 => bool) public allowlistedChains */\n    tag_11:\n      mstore(0x20, 0x03)\n      dup1\n      0x00\n      mstore\n      keccak256(0x00, 0x40)\n      0x00\n      swap2\n      pop\n      sload\n      swap1\n      0x0100\n      exp\n      swap1\n      div\n      0xff\n      and\n      dup2\n      jump\t// out\n        /* \"@openzeppelin/contracts/access/Ownable.sol\":1605:1697  function renounceOwnership() public virtual onlyOwner {... */\n    tag_15:\n        /* \"@openzeppelin/contracts/access/Ownable.sol\":1196:1208  _msgSender() */\n      tag_31\n        /* \"@openzeppelin/contracts/access/Ownable.sol\":1196:1206  _msgSender */\n      tag_32\n        /* \"@openzeppelin/contracts/access/Ownable.sol\":1196:1208  _msgSender() */\n      jump\t// in\n    tag_31:\n        /* \"@openzeppelin/contracts/access/Ownable.sol\":1185:1208  owner() == _msgSender() */\n      0xffffffffffffffffffffffffffffffffffffffff\n      and\n        /* \"@openzeppelin/contracts/access/Ownable.sol\":1185:1192  owner() */\n      tag_33\n        /* \"@openzeppelin/contracts/access/Ownable.sol\":1185:1190  owner */\n      tag_17\n        /* \"@openzeppelin/contracts/access/Ownable.sol\":1185:1192  owner() */\n      jump\t// in\n    tag_33:\n        /* \"@openzeppelin/contracts/access/Ownable.sol\":1185:1208  owner() == _msgSender() */\n      0xffffffffffffffffffffffffffffffffffffffff\n      and\n      eq\n        /* \"@openzeppelin/contracts/access/Ownable.sol\":1177:1245  require(owner() == _msgSender(), \"Ownable: caller is not the owner\") */\n      tag_34\n      jumpi\n      mload(0x40)\n      0x08c379a000000000000000000000000000000000000000000000000000000000\n      dup2\n      mstore\n      0x04\n      add\n      tag_35\n      swap1\n      tag_36\n      jump\t// in\n    tag_35:\n      mload(0x40)\n      dup1\n      swap2\n      sub\n      swap1\n      revert\n    tag_34:\n        /* \"@openzeppelin/contracts/access/Ownable.sol\":1669:1690  _setOwner(address(0)) */\n      tag_38\n        /* \"@openzeppelin/contracts/access/Ownable.sol\":1687:1688  0 */\n      0x00\n        /* \"@openzeppelin/contracts/access/Ownable.sol\":1669:1678  _setOwner */\n      tag_39\n        /* \"@openzeppelin/contracts/access/Ownable.sol\":1669:1690  _setOwner(address(0)) */\n      jump\t// in\n    tag_38:\n        /* \"@openzeppelin/contracts/access/Ownable.sol\":1605:1697  function renounceOwnership() public virtual onlyOwner {... */\n      jump\t// out\n        /* \"@openzeppelin/contracts/access/Ownable.sol\":973:1058  function owner() public view virtual returns (address) {... */\n    tag_17:\n        /* \"@openzeppelin/contracts/access/Ownable.sol\":1019:1026  address */\n      0x00\n        /* \"@openzeppelin/contracts/access/Ownable.sol\":1045:1051  _owner */\n      dup1\n      0x00\n      swap1\n      sload\n      swap1\n      0x0100\n      exp\n      swap1\n      div\n      0xffffffffffffffffffffffffffffffffffffffff\n      and\n        /* \"@openzeppelin/contracts/access/Ownable.sol\":1038:1051  return _owner */\n      swap1\n      pop\n        /* \"@openzeppelin/contracts/access/Ownable.sol\":973:1058  function owner() public view virtual returns (address) {... */\n      swap1\n      jump\t// out\n        /* \"@openzeppelin/contracts/access/Ownable.sol\":1846:2035  function transferOwnership(address newOwner) public virtual onlyOwner {... */\n    tag_23:\n        /* \"@openzeppelin/contracts/access/Ownable.sol\":1196:1208  _msgSender() */\n      tag_42\n        /* \"@openzeppelin/contracts/access/Ownable.sol\":1196:1206  _msgSender */\n      tag_32\n        /* \"@openzeppelin/contracts/access/Ownable.sol\":1196:1208  _msgSender() */\n      jump\t// in\n    tag_42:\n        /* \"@openzeppelin/contracts/access/Ownable.sol\":1185:1208  owner() == _msgSender() */\n      0xffffffffffffffffffffffffffffffffffffffff\n      and\n        /* \"@openzeppelin/contracts/access/Ownable.sol\":1185:1192  owner() */\n      tag_43\n        /* \"@openzeppelin/contracts/access/Ownable.sol\":1185:1190  owner */\n      tag_17\n        /* \"@openzeppelin/contracts/access/Ownable.sol\":1185:1192  owner() */\n      jump\t// in\n    tag_43:\n        /* \"@openzeppelin/contracts/access/Ownable.sol\":1185:1208  owner() == _msgSender() */\n      0xffffffffffffffffffffffffffffffffffffffff\n      and\n      eq\n        /* \"@openzeppelin/contracts/access/Ownable.sol\":1177:1245  require(owner() == _msgSender(), \"Ownable: caller is not the owner\") */\n      tag_44\n      jumpi\n      mload(0x40)\n      0x08c379a000000000000000000000000000000000000000000000000000000000\n      dup2\n      mstore\n      0x04\n      add\n      tag_45\n      swap1\n      tag_36\n      jump\t// in\n    tag_45:\n      mload(0x40)\n      dup1\n      swap2\n      sub\n      swap1\n      revert\n    tag_44:\n        /* \"@openzeppelin/contracts/access/Ownable.sol\":1954:1955  0 */\n      0x00\n        /* \"@openzeppelin/contracts/access/Ownable.sol\":1934:1956  newOwner != address(0) */\n      0xffffffffffffffffffffffffffffffffffffffff\n      and\n        /* \"@openzeppelin/contracts/access/Ownable.sol\":1934:1942  newOwner */\n      dup2\n        /* \"@openzeppelin/contracts/access/Ownable.sol\":1934:1956  newOwner != address(0) */\n      0xffffffffffffffffffffffffffffffffffffffff\n      and\n      sub\n        /* \"@openzeppelin/contracts/access/Ownable.sol\":1926:1999  require(newOwner != address(0), \"Ownable: new owner is the zero address\") */\n      tag_47\n      jumpi\n      mload(0x40)\n      0x08c379a000000000000000000000000000000000000000000000000000000000\n      dup2\n      mstore\n      0x04\n      add\n      tag_48\n      swap1\n      tag_49\n      jump\t// in\n    tag_48:\n      mload(0x40)\n      dup1\n      swap2\n      sub\n      swap1\n      revert\n    tag_47:\n        /* \"@openzeppelin/contracts/access/Ownable.sol\":2009:2028  _setOwner(newOwner) */\n      tag_50\n        /* \"@openzeppelin/contracts/access/Ownable.sol\":2019:2027  newOwner */\n      dup2\n        /* \"@openzeppelin/contracts/access/Ownable.sol\":2009:2018  _setOwner */\n      tag_39\n        /* \"@openzeppelin/contracts/access/Ownable.sol\":2009:2028  _setOwner(newOwner) */\n      jump\t// in\n    tag_50:\n        /* \"@openzeppelin/contracts/access/Ownable.sol\":1846:2035  function transferOwnership(address newOwner) public virtual onlyOwner {... */\n      pop\n      jump\t// out\n        /* \"contracts/ccip/Sender.sol\":1528:2851  function send_message (... */\n    tag_27:\n        /* \"contracts/ccip/Sender.sol\":1666:1683  bytes32 messageId */\n      0x00\n        /* \"@openzeppelin/contracts/access/Ownable.sol\":1196:1208  _msgSender() */\n      tag_52\n        /* \"@openzeppelin/contracts/access/Ownable.sol\":1196:1206  _msgSender */\n      tag_32\n        /* \"@openzeppelin/contracts/access/Ownable.sol\":1196:1208  _msgSender() */\n      jump\t// in\n    tag_52:\n        /* \"@openzeppelin/contracts/access/Ownable.sol\":1185:1208  owner() == _msgSender() */\n      0xffffffffffffffffffffffffffffffffffffffff\n      and\n        /* \"@openzeppelin/contracts/access/Ownable.sol\":1185:1192  owner() */\n      tag_53\n        /* \"@openzeppelin/contracts/access/Ownable.sol\":1185:1190  owner */\n      tag_17\n        /* \"@openzeppelin/contracts/access/Ownable.sol\":1185:1192  owner() */\n      jump\t// in\n    tag_53:\n        /* \"@openzeppelin/contracts/access/Ownable.sol\":1185:1208  owner() == _msgSender() */\n      0xffffffffffffffffffffffffffffffffffffffff\n      and\n      eq\n        /* \"@openzeppelin/contracts/access/Ownable.sol\":1177:1245  require(owner() == _msgSender(), \"Ownable: caller is not the owner\") */\n      tag_54\n      jumpi\n      mload(0x40)\n      0x08c379a000000000000000000000000000000000000000000000000000000000\n      dup2\n      mstore\n      0x04\n      add\n      tag_55\n      swap1\n      tag_36\n      jump\t// in\n    tag_55:\n      mload(0x40)\n      dup1\n      swap2\n      sub\n      swap1\n      revert\n    tag_54:\n        /* \"contracts/ccip/Sender.sol\":1696:1732  Client.EVM2AnyMessage memory message */\n      0x00\n        /* \"contracts/ccip/Sender.sol\":1735:2140  Client.EVM2AnyMessage({... */\n      mload(0x40)\n      dup1\n      0xa0\n      add\n      0x40\n      mstore\n      dup1\n        /* \"contracts/ccip/Sender.sol\":1798:1806  receiver */\n      dup6\n        /* \"contracts/ccip/Sender.sol\":1781:1807  abi.encodePacked(receiver) */\n      add(0x20, mload(0x40))\n      tag_57\n      swap2\n      swap1\n      tag_58\n      jump\t// in\n    tag_57:\n      mload(0x40)\n      0x20\n      dup2\n      dup4\n      sub\n      sub\n      dup2\n      mstore\n      swap1\n      0x40\n      mstore\n        /* \"contracts/ccip/Sender.sol\":1735:2140  Client.EVM2AnyMessage({... */\n      dup2\n      mstore\n      0x20\n      add\n        /* \"contracts/ccip/Sender.sol\":1838:1842  vote */\n      dup5\n        /* \"contracts/ccip/Sender.sol\":1827:1843  abi.encode(vote) */\n      add(0x20, mload(0x40))\n      tag_59\n      swap2\n      swap1\n      tag_13\n      jump\t// in\n    tag_59:\n      mload(0x40)\n      0x20\n      dup2\n      dup4\n      sub\n      sub\n      dup2\n      mstore\n      swap1\n      0x40\n      mstore\n        /* \"contracts/ccip/Sender.sol\":1735:2140  Client.EVM2AnyMessage({... */\n      dup2\n      mstore\n      0x20\n      add\n        /* \"contracts/ccip/Sender.sol\":1899:1900  0 */\n      0x00\n        /* \"contracts/ccip/Sender.sol\":1871:1901  new Client.EVMTokenAmount[](0) */\n      0xffffffffffffffff\n      dup2\n      gt\n      iszero\n      tag_60\n      jumpi\n      tag_61\n      tag_62\n      jump\t// in\n    tag_61:\n    tag_60:\n      mload(0x40)\n      swap1\n      dup1\n      dup3\n      mstore\n      dup1\n      0x20\n      mul\n      0x20\n      add\n      dup3\n      add\n      0x40\n      mstore\n      dup1\n      iszero\n      tag_63\n      jumpi\n      dup2\n      0x20\n      add\n    tag_64:\n      tag_65\n      tag_66\n      jump\t// in\n    tag_65:\n      dup2\n      mstore\n      0x20\n      add\n      swap1\n      0x01\n      swap1\n      sub\n      swap1\n      dup2\n      tag_64\n      jumpi\n      swap1\n      pop\n    tag_63:\n      pop\n        /* \"contracts/ccip/Sender.sol\":1735:2140  Client.EVM2AnyMessage({... */\n      dup2\n      mstore\n      0x20\n      add\n        /* \"contracts/ccip/Sender.sol\":2081:2092  s_linkToken */\n      0x01\n      0x00\n      swap1\n      sload\n      swap1\n      0x0100\n      exp\n      swap1\n      div\n      0xffffffffffffffffffffffffffffffffffffffff\n      and\n        /* \"contracts/ccip/Sender.sol\":1735:2140  Client.EVM2AnyMessage({... */\n      0xffffffffffffffffffffffffffffffffffffffff\n      and\n      dup2\n      mstore\n      0x20\n      add\n        /* \"contracts/ccip/Sender.sol\":2007:2048  Client.EVMExtraArgsV1({gasLimit: 100000}) */\n      mload(0x40)\n      dup1\n      0x20\n      add\n      0x40\n      mstore\n      dup1\n        /* \"contracts/ccip/Sender.sol\":2040:2046  100000 */\n      0x0186a0\n        /* \"contracts/ccip/Sender.sol\":2007:2048  Client.EVMExtraArgsV1({gasLimit: 100000}) */\n      dup2\n      mstore\n      pop\n        /* \"contracts/ccip/Sender.sol\":1996:2049  abi.encode(Client.EVMExtraArgsV1({gasLimit: 100000})) */\n      add(0x20, mload(0x40))\n      tag_67\n      swap2\n      swap1\n      tag_68\n      jump\t// in\n    tag_67:\n      mload(0x40)\n      0x20\n      dup2\n      dup4\n      sub\n      sub\n      dup2\n      mstore\n      swap1\n      0x40\n      mstore\n        /* \"contracts/ccip/Sender.sol\":1735:2140  Client.EVM2AnyMessage({... */\n      dup2\n      mstore\n      pop\n        /* \"contracts/ccip/Sender.sol\":1696:2140  Client.EVM2AnyMessage memory message = Client.EVM2AnyMessage({... */\n      swap1\n      pop\n        /* \"contracts/ccip/Sender.sol\":2156:2168  uint256 fees */\n      0x00\n        /* \"contracts/ccip/Sender.sol\":2171:2179  s_router */\n      0x02\n      0x00\n      swap1\n      sload\n      swap1\n      0x0100\n      exp\n      swap1\n      div\n      0xffffffffffffffffffffffffffffffffffffffff\n      and\n        /* \"contracts/ccip/Sender.sol\":2171:2186  s_router.getFee */\n      0xffffffffffffffffffffffffffffffffffffffff\n      and\n      0x20487ded\n        /* \"contracts/ccip/Sender.sol\":2200:2224  destinationChainSelector */\n      dup8\n        /* \"contracts/ccip/Sender.sol\":2238:2245  message */\n      dup5\n        /* \"contracts/ccip/Sender.sol\":2171:2255  s_router.getFee(... */\n      mload(0x40)\n      dup4\n      0xffffffff\n      and\n      0xe0\n      shl\n      dup2\n      mstore\n      0x04\n      add\n      tag_69\n      swap3\n      swap2\n      swap1\n      tag_70\n      jump\t// in\n    tag_69:\n      0x20\n      mload(0x40)\n      dup1\n      dup4\n      sub\n      dup2\n      dup7\n      gas\n      staticcall\n      iszero\n      dup1\n      iszero\n      tag_72\n      jumpi\n      returndatasize\n      0x00\n      dup1\n      returndatacopy\n      revert(0x00, returndatasize)\n    tag_72:\n      pop\n      pop\n      pop\n      pop\n      mload(0x40)\n      returndatasize\n      not(0x1f)\n      0x1f\n      dup3\n      add\n      and\n      dup3\n      add\n      dup1\n      0x40\n      mstore\n      pop\n      dup2\n      add\n      swap1\n      tag_73\n      swap2\n      swap1\n      tag_74\n      jump\t// in\n    tag_73:\n        /* \"contracts/ccip/Sender.sol\":2156:2255  uint256 fees = s_router.getFee(... */\n      swap1\n      pop\n        /* \"contracts/ccip/Sender.sol\":2308:2312  fees */\n      dup1\n        /* \"contracts/ccip/Sender.sol\":2269:2280  s_linkToken */\n      0x01\n      0x00\n      swap1\n      sload\n      swap1\n      0x0100\n      exp\n      swap1\n      div\n      0xffffffffffffffffffffffffffffffffffffffff\n      and\n        /* \"contracts/ccip/Sender.sol\":2269:2290  s_linkToken.balanceOf */\n      0xffffffffffffffffffffffffffffffffffffffff\n      and\n      0x70a08231\n        /* \"contracts/ccip/Sender.sol\":2299:2303  this */\n      address\n        /* \"contracts/ccip/Sender.sol\":2269:2305  s_linkToken.balanceOf(address(this)) */\n      mload(0x40)\n      dup3\n      0xffffffff\n      and\n      0xe0\n      shl\n      dup2\n      mstore\n      0x04\n      add\n      tag_75\n      swap2\n      swap1\n      tag_19\n      jump\t// in\n    tag_75:\n      0x20\n      mload(0x40)\n      dup1\n      dup4\n      sub\n      dup2\n      dup7\n      gas\n      staticcall\n      iszero\n      dup1\n      iszero\n      tag_77\n      jumpi\n      returndatasize\n      0x00\n      dup1\n      returndatacopy\n      revert(0x00, returndatasize)\n    tag_77:\n      pop\n      pop\n      pop\n      pop\n      mload(0x40)\n      returndatasize\n      not(0x1f)\n      0x1f\n      dup3\n      add\n      and\n      dup3\n      add\n      dup1\n      0x40\n      mstore\n      pop\n      dup2\n      add\n      swap1\n      tag_78\n      swap2\n      swap1\n      tag_74\n      jump\t// in\n    tag_78:\n        /* \"contracts/ccip/Sender.sol\":2269:2312  s_linkToken.balanceOf(address(this)) < fees */\n      lt\n        /* \"contracts/ccip/Sender.sol\":2266:2404  if(s_linkToken.balanceOf(address(this)) < fees) {... */\n      iszero\n      tag_79\n      jumpi\n        /* \"contracts/ccip/Sender.sol\":2350:2361  s_linkToken */\n      0x01\n      0x00\n      swap1\n      sload\n      swap1\n      0x0100\n      exp\n      swap1\n      div\n      0xffffffffffffffffffffffffffffffffffffffff\n      and\n        /* \"contracts/ccip/Sender.sol\":2350:2371  s_linkToken.balanceOf */\n      0xffffffffffffffffffffffffffffffffffffffff\n      and\n      0x70a08231\n        /* \"contracts/ccip/Sender.sol\":2380:2384  this */\n      address\n        /* \"contracts/ccip/Sender.sol\":2350:2386  s_linkToken.balanceOf(address(this)) */\n      mload(0x40)\n      dup3\n      0xffffffff\n      and\n      0xe0\n      shl\n      dup2\n      mstore\n      0x04\n      add\n      tag_80\n      swap2\n      swap1\n      tag_19\n      jump\t// in\n    tag_80:\n      0x20\n      mload(0x40)\n      dup1\n      dup4\n      sub\n      dup2\n      dup7\n      gas\n      staticcall\n      iszero\n      dup1\n      iszero\n      tag_82\n      jumpi\n      returndatasize\n      0x00\n      dup1\n      returndatacopy\n      revert(0x00, returndatasize)\n    tag_82:\n      pop\n      pop\n      pop\n      pop\n      mload(0x40)\n      returndatasize\n      not(0x1f)\n      0x1f\n      dup3\n      add\n      and\n      dup3\n      add\n      dup1\n      0x40\n      mstore\n      pop\n      dup2\n      add\n      swap1\n      tag_83\n      swap2\n      swap1\n      tag_74\n      jump\t// in\n    tag_83:\n        /* \"contracts/ccip/Sender.sol\":2388:2392  fees */\n      dup2\n        /* \"contracts/ccip/Sender.sol\":2335:2393  NotEnoughMoney(s_linkToken.balanceOf(address(this)), fees) */\n      mload(0x40)\n      0x3d8d9b5300000000000000000000000000000000000000000000000000000000\n      dup2\n      mstore\n      0x04\n      add\n      tag_84\n      swap3\n      swap2\n      swap1\n      tag_85\n      jump\t// in\n    tag_84:\n      mload(0x40)\n      dup1\n      swap2\n      sub\n      swap1\n      revert\n        /* \"contracts/ccip/Sender.sol\":2266:2404  if(s_linkToken.balanceOf(address(this)) < fees) {... */\n    tag_79:\n        /* \"contracts/ccip/Sender.sol\":2427:2435  s_router */\n      0x02\n      0x00\n      swap1\n      sload\n      swap1\n      0x0100\n      exp\n      swap1\n      div\n      0xffffffffffffffffffffffffffffffffffffffff\n      and\n        /* \"contracts/ccip/Sender.sol\":2427:2444  s_router.ccipSend */\n      0xffffffffffffffffffffffffffffffffffffffff\n      and\n      0x96f4e9f9\n        /* \"contracts/ccip/Sender.sol\":2452:2456  fees */\n      dup3\n        /* \"contracts/ccip/Sender.sol\":2471:2495  destinationChainSelector */\n      dup9\n        /* \"contracts/ccip/Sender.sol\":2509:2516  message */\n      dup6\n        /* \"contracts/ccip/Sender.sol\":2427:2526  s_router.ccipSend{value: fees}(... */\n      mload(0x40)\n      dup5\n      0xffffffff\n      and\n      0xe0\n      shl\n      dup2\n      mstore\n      0x04\n      add\n      tag_86\n      swap3\n      swap2\n      swap1\n      tag_70\n      jump\t// in\n    tag_86:\n      0x20\n      mload(0x40)\n      dup1\n      dup4\n      sub\n      dup2\n      dup6\n      dup9\n      gas\n      call\n      iszero\n      dup1\n      iszero\n      tag_88\n      jumpi\n      returndatasize\n      0x00\n      dup1\n      returndatacopy\n      revert(0x00, returndatasize)\n    tag_88:\n      pop\n      pop\n      pop\n      pop\n      pop\n      mload(0x40)\n      returndatasize\n      not(0x1f)\n      0x1f\n      dup3\n      add\n      and\n      dup3\n      add\n      dup1\n      0x40\n      mstore\n      pop\n      dup2\n      add\n      swap1\n      tag_89\n      swap2\n      swap1\n      tag_90\n      jump\t// in\n    tag_89:\n        /* \"contracts/ccip/Sender.sol\":2415:2526  messageId = s_router.ccipSend{value: fees}(... */\n      swap3\n      pop\n        /* \"contracts/ccip/Sender.sol\":2591:2615  destinationChainSelector */\n      dup6\n        /* \"contracts/ccip/Sender.sol\":2542:2717  ProposalSent(... */\n      0xffffffffffffffff\n      and\n        /* \"contracts/ccip/Sender.sol\":2568:2577  messageId */\n      dup4\n        /* \"contracts/ccip/Sender.sol\":2542:2717  ProposalSent(... */\n      0xafce261979d2c73e371096c12c07fcdf3e86c7a2d12f7c3621836fca8b843f79\n        /* \"contracts/ccip/Sender.sol\":2629:2637  receiver */\n      dup8\n        /* \"contracts/ccip/Sender.sol\":2651:2655  vote */\n      dup8\n        /* \"contracts/ccip/Sender.sol\":2677:2688  s_linkToken */\n      0x01\n      0x00\n      swap1\n      sload\n      swap1\n      0x0100\n      exp\n      swap1\n      div\n      0xffffffffffffffffffffffffffffffffffffffff\n      and\n        /* \"contracts/ccip/Sender.sol\":2703:2707  fees */\n      dup7\n        /* \"contracts/ccip/Sender.sol\":2542:2717  ProposalSent(... */\n      mload(0x40)\n      tag_91\n      swap5\n      swap4\n      swap3\n      swap2\n      swap1\n      tag_92\n      jump\t// in\n    tag_91:\n      mload(0x40)\n      dup1\n      swap2\n      sub\n      swap1\n      log3\n        /* \"contracts/ccip/Sender.sol\":2736:2753  allowlistedChains */\n      0x03\n        /* \"contracts/ccip/Sender.sol\":2736:2779  allowlistedChains[destinationChainSelector] */\n      0x00\n        /* \"contracts/ccip/Sender.sol\":2754:2778  destinationChainSelector */\n      dup8\n        /* \"contracts/ccip/Sender.sol\":2736:2779  allowlistedChains[destinationChainSelector] */\n      0xffffffffffffffff\n      and\n      0xffffffffffffffff\n      and\n      dup2\n      mstore\n      0x20\n      add\n      swap1\n      dup2\n      mstore\n      0x20\n      add\n      0x00\n      keccak256\n      0x00\n      swap1\n      sload\n      swap1\n      0x0100\n      exp\n      swap1\n      div\n      0xff\n      and\n        /* \"contracts/ccip/Sender.sol\":2728:2817  require(allowlistedChains[destinationChainSelector], \"Destination chain not allowlisted\") */\n      tag_93\n      jumpi\n      mload(0x40)\n      0x08c379a000000000000000000000000000000000000000000000000000000000\n      dup2\n      mstore\n      0x04\n      add\n      tag_94\n      swap1\n      tag_95\n      jump\t// in\n    tag_94:\n      mload(0x40)\n      dup1\n      swap2\n      sub\n      swap1\n      revert\n    tag_93:\n        /* \"contracts/ccip/Sender.sol\":2827:2843  return messageId */\n      pop\n      pop\n        /* \"contracts/ccip/Sender.sol\":1528:2851  function send_message (... */\n      swap4\n      swap3\n      pop\n      pop\n      pop\n      jump\t// out\n        /* \"@openzeppelin/contracts/utils/Context.sol\":587:683  function _msgSender() internal view virtual returns (address) {... */\n    tag_32:\n        /* \"@openzeppelin/contracts/utils/Context.sol\":640:647  address */\n      0x00\n        /* \"@openzeppelin/contracts/utils/Context.sol\":666:676  msg.sender */\n      caller\n        /* \"@openzeppelin/contracts/utils/Context.sol\":659:676  return msg.sender */\n      swap1\n      pop\n        /* \"@openzeppelin/contracts/utils/Context.sol\":587:683  function _msgSender() internal view virtual returns (address) {... */\n      swap1\n      jump\t// out\n        /* \"@openzeppelin/contracts/access/Ownable.sol\":2041:2210  function _setOwner(address newOwner) private {... */\n    tag_39:\n        /* \"@openzeppelin/contracts/access/Ownable.sol\":2096:2112  address oldOwner */\n      0x00\n        /* \"@openzeppelin/contracts/access/Ownable.sol\":2115:2121  _owner */\n      dup1\n      0x00\n      swap1\n      sload\n      swap1\n      0x0100\n      exp\n      swap1\n      div\n      0xffffffffffffffffffffffffffffffffffffffff\n      and\n        /* \"@openzeppelin/contracts/access/Ownable.sol\":2096:2121  address oldOwner = _owner */\n      swap1\n      pop\n        /* \"@openzeppelin/contracts/access/Ownable.sol\":2140:2148  newOwner */\n      dup2\n        /* \"@openzeppelin/contracts/access/Ownable.sol\":2131:2137  _owner */\n      0x00\n      dup1\n        /* \"@openzeppelin/contracts/access/Ownable.sol\":2131:2148  _owner = newOwner */\n      0x0100\n      exp\n      dup2\n      sload\n      dup2\n      0xffffffffffffffffffffffffffffffffffffffff\n      mul\n      not\n      and\n      swap1\n      dup4\n      0xffffffffffffffffffffffffffffffffffffffff\n      and\n      mul\n      or\n      swap1\n      sstore\n      pop\n        /* \"@openzeppelin/contracts/access/Ownable.sol\":2194:2202  newOwner */\n      dup2\n        /* \"@openzeppelin/contracts/access/Ownable.sol\":2163:2203  OwnershipTransferred(oldOwner, newOwner) */\n      0xffffffffffffffffffffffffffffffffffffffff\n      and\n        /* \"@openzeppelin/contracts/access/Ownable.sol\":2184:2192  oldOwner */\n      dup2\n        /* \"@openzeppelin/contracts/access/Ownable.sol\":2163:2203  OwnershipTransferred(oldOwner, newOwner) */\n      0xffffffffffffffffffffffffffffffffffffffff\n      and\n      0x8be0079c531659141344cd1fd0a4f28419497f9722a3daafe3b4186f6b6457e0\n      mload(0x40)\n      mload(0x40)\n      dup1\n      swap2\n      sub\n      swap1\n      log3\n        /* \"@openzeppelin/contracts/access/Ownable.sol\":2086:2210  {... */\n      pop\n        /* \"@openzeppelin/contracts/access/Ownable.sol\":2041:2210  function _setOwner(address newOwner) private {... */\n      pop\n      jump\t// out\n    tag_66:\n      mload(0x40)\n      dup1\n      0x40\n      add\n      0x40\n      mstore\n      dup1\n      and(0xffffffffffffffffffffffffffffffffffffffff, 0x00)\n      dup2\n      mstore\n      0x20\n      add\n      0x00\n      dup2\n      mstore\n      pop\n      swap1\n      jump\t// out\n        /* \"#utility.yul\":88:205   */\n    tag_99:\n        /* \"#utility.yul\":197:198   */\n      0x00\n        /* \"#utility.yul\":194:195   */\n      dup1\n        /* \"#utility.yul\":187:199   */\n      revert\n        /* \"#utility.yul\":334:435   */\n    tag_101:\n        /* \"#utility.yul\":370:377   */\n      0x00\n        /* \"#utility.yul\":410:428   */\n      0xffffffffffffffff\n        /* \"#utility.yul\":403:408   */\n      dup3\n        /* \"#utility.yul\":399:429   */\n      and\n        /* \"#utility.yul\":388:429   */\n      swap1\n      pop\n        /* \"#utility.yul\":334:435   */\n      swap2\n      swap1\n      pop\n      jump\t// out\n        /* \"#utility.yul\":441:561   */\n    tag_102:\n        /* \"#utility.yul\":513:536   */\n      tag_155\n        /* \"#utility.yul\":530:535   */\n      dup2\n        /* \"#utility.yul\":513:536   */\n      tag_101\n      jump\t// in\n    tag_155:\n        /* \"#utility.yul\":506:511   */\n      dup2\n        /* \"#utility.yul\":503:537   */\n      eq\n        /* \"#utility.yul\":493:555   */\n      tag_156\n      jumpi\n        /* \"#utility.yul\":551:552   */\n      0x00\n        /* \"#utility.yul\":548:549   */\n      dup1\n        /* \"#utility.yul\":541:553   */\n      revert\n        /* \"#utility.yul\":493:555   */\n    tag_156:\n        /* \"#utility.yul\":441:561   */\n      pop\n      jump\t// out\n        /* \"#utility.yul\":567:704   */\n    tag_103:\n        /* \"#utility.yul\":612:617   */\n      0x00\n        /* \"#utility.yul\":650:656   */\n      dup2\n        /* \"#utility.yul\":637:657   */\n      calldataload\n        /* \"#utility.yul\":628:657   */\n      swap1\n      pop\n        /* \"#utility.yul\":666:698   */\n      tag_158\n        /* \"#utility.yul\":692:697   */\n      dup2\n        /* \"#utility.yul\":666:698   */\n      tag_102\n      jump\t// in\n    tag_158:\n        /* \"#utility.yul\":567:704   */\n      swap3\n      swap2\n      pop\n      pop\n      jump\t// out\n        /* \"#utility.yul\":710:1037   */\n    tag_10:\n        /* \"#utility.yul\":768:774   */\n      0x00\n        /* \"#utility.yul\":817:819   */\n      0x20\n        /* \"#utility.yul\":805:814   */\n      dup3\n        /* \"#utility.yul\":796:803   */\n      dup5\n        /* \"#utility.yul\":792:815   */\n      sub\n        /* \"#utility.yul\":788:820   */\n      slt\n        /* \"#utility.yul\":785:904   */\n      iszero\n      tag_160\n      jumpi\n        /* \"#utility.yul\":823:902   */\n      tag_161\n      tag_99\n      jump\t// in\n    tag_161:\n        /* \"#utility.yul\":785:904   */\n    tag_160:\n        /* \"#utility.yul\":943:944   */\n      0x00\n        /* \"#utility.yul\":968:1020   */\n      tag_162\n        /* \"#utility.yul\":1012:1019   */\n      dup5\n        /* \"#utility.yul\":1003:1009   */\n      dup3\n        /* \"#utility.yul\":992:1001   */\n      dup6\n        /* \"#utility.yul\":988:1010   */\n      add\n        /* \"#utility.yul\":968:1020   */\n      tag_103\n      jump\t// in\n    tag_162:\n        /* \"#utility.yul\":958:1020   */\n      swap2\n      pop\n        /* \"#utility.yul\":914:1030   */\n      pop\n        /* \"#utility.yul\":710:1037   */\n      swap3\n      swap2\n      pop\n      pop\n      jump\t// out\n        /* \"#utility.yul\":1043:1133   */\n    tag_104:\n        /* \"#utility.yul\":1077:1084   */\n      0x00\n        /* \"#utility.yul\":1120:1125   */\n      dup2\n        /* \"#utility.yul\":1113:1126   */\n      iszero\n        /* \"#utility.yul\":1106:1127   */\n      iszero\n        /* \"#utility.yul\":1095:1127   */\n      swap1\n      pop\n        /* \"#utility.yul\":1043:1133   */\n      swap2\n      swap1\n      pop\n      jump\t// out\n        /* \"#utility.yul\":1139:1248   */\n    tag_105:\n        /* \"#utility.yul\":1220:1241   */\n      tag_165\n        /* \"#utility.yul\":1235:1240   */\n      dup2\n        /* \"#utility.yul\":1220:1241   */\n      tag_104\n      jump\t// in\n    tag_165:\n        /* \"#utility.yul\":1215:1218   */\n      dup3\n        /* \"#utility.yul\":1208:1242   */\n      mstore\n        /* \"#utility.yul\":1139:1248   */\n      pop\n      pop\n      jump\t// out\n        /* \"#utility.yul\":1254:1464   */\n    tag_13:\n        /* \"#utility.yul\":1341:1345   */\n      0x00\n        /* \"#utility.yul\":1379:1381   */\n      0x20\n        /* \"#utility.yul\":1368:1377   */\n      dup3\n        /* \"#utility.yul\":1364:1382   */\n      add\n        /* \"#utility.yul\":1356:1382   */\n      swap1\n      pop\n        /* \"#utility.yul\":1392:1457   */\n      tag_167\n        /* \"#utility.yul\":1454:1455   */\n      0x00\n        /* \"#utility.yul\":1443:1452   */\n      dup4\n        /* \"#utility.yul\":1439:1456   */\n      add\n        /* \"#utility.yul\":1430:1436   */\n      dup5\n        /* \"#utility.yul\":1392:1457   */\n      tag_105\n      jump\t// in\n    tag_167:\n        /* \"#utility.yul\":1254:1464   */\n      swap3\n      swap2\n      pop\n      pop\n      jump\t// out\n        /* \"#utility.yul\":1470:1596   */\n    tag_106:\n        /* \"#utility.yul\":1507:1514   */\n      0x00\n        /* \"#utility.yul\":1547:1589   */\n      0xffffffffffffffffffffffffffffffffffffffff\n        /* \"#utility.yul\":1540:1545   */\n      dup3\n        /* \"#utility.yul\":1536:1590   */\n      and\n        /* \"#utility.yul\":1525:1590   */\n      swap1\n      pop\n        /* \"#utility.yul\":1470:1596   */\n      swap2\n      swap1\n      pop\n      jump\t// out\n        /* \"#utility.yul\":1602:1698   */\n    tag_107:\n        /* \"#utility.yul\":1639:1646   */\n      0x00\n        /* \"#utility.yul\":1668:1692   */\n      tag_170\n        /* \"#utility.yul\":1686:1691   */\n      dup3\n        /* \"#utility.yul\":1668:1692   */\n      tag_106\n      jump\t// in\n    tag_170:\n        /* \"#utility.yul\":1657:1692   */\n      swap1\n      pop\n        /* \"#utility.yul\":1602:1698   */\n      swap2\n      swap1\n      pop\n      jump\t// out\n        /* \"#utility.yul\":1704:1822   */\n    tag_108:\n        /* \"#utility.yul\":1791:1815   */\n      tag_172\n        /* \"#utility.yul\":1809:1814   */\n      dup2\n        /* \"#utility.yul\":1791:1815   */\n      tag_107\n      jump\t// in\n    tag_172:\n        /* \"#utility.yul\":1786:1789   */\n      dup3\n        /* \"#utility.yul\":1779:1816   */\n      mstore\n        /* \"#utility.yul\":1704:1822   */\n      pop\n      pop\n      jump\t// out\n        /* \"#utility.yul\":1828:2050   */\n    tag_19:\n        /* \"#utility.yul\":1921:1925   */\n      0x00\n        /* \"#utility.yul\":1959:1961   */\n      0x20\n        /* \"#utility.yul\":1948:1957   */\n      dup3\n        /* \"#utility.yul\":1944:1962   */\n      add\n        /* \"#utility.yul\":1936:1962   */\n      swap1\n      pop\n        /* \"#utility.yul\":1972:2043   */\n      tag_174\n        /* \"#utility.yul\":2040:2041   */\n      0x00\n        /* \"#utility.yul\":2029:2038   */\n      dup4\n        /* \"#utility.yul\":2025:2042   */\n      add\n        /* \"#utility.yul\":2016:2022   */\n      dup5\n        /* \"#utility.yul\":1972:2043   */\n      tag_108\n      jump\t// in\n    tag_174:\n        /* \"#utility.yul\":1828:2050   */\n      swap3\n      swap2\n      pop\n      pop\n      jump\t// out\n        /* \"#utility.yul\":2056:2178   */\n    tag_109:\n        /* \"#utility.yul\":2129:2153   */\n      tag_176\n        /* \"#utility.yul\":2147:2152   */\n      dup2\n        /* \"#utility.yul\":2129:2153   */\n      tag_107\n      jump\t// in\n    tag_176:\n        /* \"#utility.yul\":2122:2127   */\n      dup2\n        /* \"#utility.yul\":2119:2154   */\n      eq\n        /* \"#utility.yul\":2109:2172   */\n      tag_177\n      jumpi\n        /* \"#utility.yul\":2168:2169   */\n      0x00\n        /* \"#utility.yul\":2165:2166   */\n      dup1\n        /* \"#utility.yul\":2158:2170   */\n      revert\n        /* \"#utility.yul\":2109:2172   */\n    tag_177:\n        /* \"#utility.yul\":2056:2178   */\n      pop\n      jump\t// out\n        /* \"#utility.yul\":2184:2323   */\n    tag_110:\n        /* \"#utility.yul\":2230:2235   */\n      0x00\n        /* \"#utility.yul\":2268:2274   */\n      dup2\n        /* \"#utility.yul\":2255:2275   */\n      calldataload\n        /* \"#utility.yul\":2246:2275   */\n      swap1\n      pop\n        /* \"#utility.yul\":2284:2317   */\n      tag_179\n        /* \"#utility.yul\":2311:2316   */\n      dup2\n        /* \"#utility.yul\":2284:2317   */\n      tag_109\n      jump\t// in\n    tag_179:\n        /* \"#utility.yul\":2184:2323   */\n      swap3\n      swap2\n      pop\n      pop\n      jump\t// out\n        /* \"#utility.yul\":2329:2658   */\n    tag_22:\n        /* \"#utility.yul\":2388:2394   */\n      0x00\n        /* \"#utility.yul\":2437:2439   */\n      0x20\n        /* \"#utility.yul\":2425:2434   */\n      dup3\n        /* \"#utility.yul\":2416:2423   */\n      dup5\n        /* \"#utility.yul\":2412:2435   */\n      sub\n        /* \"#utility.yul\":2408:2440   */\n      slt\n        /* \"#utility.yul\":2405:2524   */\n      iszero\n      tag_181\n      jumpi\n        /* \"#utility.yul\":2443:2522   */\n      tag_182\n      tag_99\n      jump\t// in\n    tag_182:\n        /* \"#utility.yul\":2405:2524   */\n    tag_181:\n        /* \"#utility.yul\":2563:2564   */\n      0x00\n        /* \"#utility.yul\":2588:2641   */\n      tag_183\n        /* \"#utility.yul\":2633:2640   */\n      dup5\n        /* \"#utility.yul\":2624:2630   */\n      dup3\n        /* \"#utility.yul\":2613:2622   */\n      dup6\n        /* \"#utility.yul\":2609:2631   */\n      add\n        /* \"#utility.yul\":2588:2641   */\n      tag_110\n      jump\t// in\n    tag_183:\n        /* \"#utility.yul\":2578:2641   */\n      swap2\n      pop\n        /* \"#utility.yul\":2534:2651   */\n      pop\n        /* \"#utility.yul\":2329:2658   */\n      swap3\n      swap2\n      pop\n      pop\n      jump\t// out\n        /* \"#utility.yul\":2664:2780   */\n    tag_111:\n        /* \"#utility.yul\":2734:2755   */\n      tag_185\n        /* \"#utility.yul\":2749:2754   */\n      dup2\n        /* \"#utility.yul\":2734:2755   */\n      tag_104\n      jump\t// in\n    tag_185:\n        /* \"#utility.yul\":2727:2732   */\n      dup2\n        /* \"#utility.yul\":2724:2756   */\n      eq\n        /* \"#utility.yul\":2714:2774   */\n      tag_186\n      jumpi\n        /* \"#utility.yul\":2770:2771   */\n      0x00\n        /* \"#utility.yul\":2767:2768   */\n      dup1\n        /* \"#utility.yul\":2760:2772   */\n      revert\n        /* \"#utility.yul\":2714:2774   */\n    tag_186:\n        /* \"#utility.yul\":2664:2780   */\n      pop\n      jump\t// out\n        /* \"#utility.yul\":2786:2919   */\n    tag_112:\n        /* \"#utility.yul\":2829:2834   */\n      0x00\n        /* \"#utility.yul\":2867:2873   */\n      dup2\n        /* \"#utility.yul\":2854:2874   */\n      calldataload\n        /* \"#utility.yul\":2845:2874   */\n      swap1\n      pop\n        /* \"#utility.yul\":2883:2913   */\n      tag_188\n        /* \"#utility.yul\":2907:2912   */\n      dup2\n        /* \"#utility.yul\":2883:2913   */\n      tag_111\n      jump\t// in\n    tag_188:\n        /* \"#utility.yul\":2786:2919   */\n      swap3\n      swap2\n      pop\n      pop\n      jump\t// out\n        /* \"#utility.yul\":2925:3536   */\n    tag_26:\n        /* \"#utility.yul\":2998:3004   */\n      0x00\n        /* \"#utility.yul\":3006:3012   */\n      dup1\n        /* \"#utility.yul\":3014:3020   */\n      0x00\n        /* \"#utility.yul\":3063:3065   */\n      0x60\n        /* \"#utility.yul\":3051:3060   */\n      dup5\n        /* \"#utility.yul\":3042:3049   */\n      dup7\n        /* \"#utility.yul\":3038:3061   */\n      sub\n        /* \"#utility.yul\":3034:3066   */\n      slt\n        /* \"#utility.yul\":3031:3150   */\n      iszero\n      tag_190\n      jumpi\n        /* \"#utility.yul\":3069:3148   */\n      tag_191\n      tag_99\n      jump\t// in\n    tag_191:\n        /* \"#utility.yul\":3031:3150   */\n    tag_190:\n        /* \"#utility.yul\":3189:3190   */\n      0x00\n        /* \"#utility.yul\":3214:3266   */\n      tag_192\n        /* \"#utility.yul\":3258:3265   */\n      dup7\n        /* \"#utility.yul\":3249:3255   */\n      dup3\n        /* \"#utility.yul\":3238:3247   */\n      dup8\n        /* \"#utility.yul\":3234:3256   */\n      add\n        /* \"#utility.yul\":3214:3266   */\n      tag_103\n      jump\t// in\n    tag_192:\n        /* \"#utility.yul\":3204:3266   */\n      swap4\n      pop\n        /* \"#utility.yul\":3160:3276   */\n      pop\n        /* \"#utility.yul\":3315:3317   */\n      0x20\n        /* \"#utility.yul\":3341:3394   */\n      tag_193\n        /* \"#utility.yul\":3386:3393   */\n      dup7\n        /* \"#utility.yul\":3377:3383   */\n      dup3\n        /* \"#utility.yul\":3366:3375   */\n      dup8\n        /* \"#utility.yul\":3362:3384   */\n      add\n        /* \"#utility.yul\":3341:3394   */\n      tag_110\n      jump\t// in\n    tag_193:\n        /* \"#utility.yul\":3331:3394   */\n      swap3\n      pop\n        /* \"#utility.yul\":3286:3404   */\n      pop\n        /* \"#utility.yul\":3443:3445   */\n      0x40\n        /* \"#utility.yul\":3469:3519   */\n      tag_194\n        /* \"#utility.yul\":3511:3518   */\n      dup7\n        /* \"#utility.yul\":3502:3508   */\n      dup3\n        /* \"#utility.yul\":3491:3500   */\n      dup8\n        /* \"#utility.yul\":3487:3509   */\n      add\n        /* \"#utility.yul\":3469:3519   */\n      tag_112\n      jump\t// in\n    tag_194:\n        /* \"#utility.yul\":3459:3519   */\n      swap2\n      pop\n        /* \"#utility.yul\":3414:3529   */\n      pop\n        /* \"#utility.yul\":2925:3536   */\n      swap3\n      pop\n      swap3\n      pop\n      swap3\n      jump\t// out\n        /* \"#utility.yul\":3542:3619   */\n    tag_113:\n        /* \"#utility.yul\":3579:3586   */\n      0x00\n        /* \"#utility.yul\":3608:3613   */\n      dup2\n        /* \"#utility.yul\":3597:3613   */\n      swap1\n      pop\n        /* \"#utility.yul\":3542:3619   */\n      swap2\n      swap1\n      pop\n      jump\t// out\n        /* \"#utility.yul\":3625:3743   */\n    tag_114:\n        /* \"#utility.yul\":3712:3736   */\n      tag_197\n        /* \"#utility.yul\":3730:3735   */\n      dup2\n        /* \"#utility.yul\":3712:3736   */\n      tag_113\n      jump\t// in\n    tag_197:\n        /* \"#utility.yul\":3707:3710   */\n      dup3\n        /* \"#utility.yul\":3700:3737   */\n      mstore\n        /* \"#utility.yul\":3625:3743   */\n      pop\n      pop\n      jump\t// out\n        /* \"#utility.yul\":3749:3971   */\n    tag_29:\n        /* \"#utility.yul\":3842:3846   */\n      0x00\n        /* \"#utility.yul\":3880:3882   */\n      0x20\n        /* \"#utility.yul\":3869:3878   */\n      dup3\n        /* \"#utility.yul\":3865:3883   */\n      add\n        /* \"#utility.yul\":3857:3883   */\n      swap1\n      pop\n        /* \"#utility.yul\":3893:3964   */\n      tag_199\n        /* \"#utility.yul\":3961:3962   */\n      0x00\n        /* \"#utility.yul\":3950:3959   */\n      dup4\n        /* \"#utility.yul\":3946:3963   */\n      add\n        /* \"#utility.yul\":3937:3943   */\n      dup5\n        /* \"#utility.yul\":3893:3964   */\n      tag_114\n      jump\t// in\n    tag_199:\n        /* \"#utility.yul\":3749:3971   */\n      swap3\n      swap2\n      pop\n      pop\n      jump\t// out\n        /* \"#utility.yul\":3977:4146   */\n    tag_115:\n        /* \"#utility.yul\":4061:4072   */\n      0x00\n        /* \"#utility.yul\":4095:4101   */\n      dup3\n        /* \"#utility.yul\":4090:4093   */\n      dup3\n        /* \"#utility.yul\":4083:4102   */\n      mstore\n        /* \"#utility.yul\":4135:4139   */\n      0x20\n        /* \"#utility.yul\":4130:4133   */\n      dup3\n        /* \"#utility.yul\":4126:4140   */\n      add\n        /* \"#utility.yul\":4111:4140   */\n      swap1\n      pop\n        /* \"#utility.yul\":3977:4146   */\n      swap3\n      swap2\n      pop\n      pop\n      jump\t// out\n        /* \"#utility.yul\":4152:4334   */\n    tag_116:\n        /* \"#utility.yul\":4292:4326   */\n      0x4f776e61626c653a2063616c6c6572206973206e6f7420746865206f776e6572\n        /* \"#utility.yul\":4288:4289   */\n      0x00\n        /* \"#utility.yul\":4280:4286   */\n      dup3\n        /* \"#utility.yul\":4276:4290   */\n      add\n        /* \"#utility.yul\":4269:4327   */\n      mstore\n        /* \"#utility.yul\":4152:4334   */\n      pop\n      jump\t// out\n        /* \"#utility.yul\":4340:4706   */\n    tag_117:\n        /* \"#utility.yul\":4482:4485   */\n      0x00\n        /* \"#utility.yul\":4503:4570   */\n      tag_203\n        /* \"#utility.yul\":4567:4569   */\n      0x20\n        /* \"#utility.yul\":4562:4565   */\n      dup4\n        /* \"#utility.yul\":4503:4570   */\n      tag_115\n      jump\t// in\n    tag_203:\n        /* \"#utility.yul\":4496:4570   */\n      swap2\n      pop\n        /* \"#utility.yul\":4579:4672   */\n      tag_204\n        /* \"#utility.yul\":4668:4671   */\n      dup3\n        /* \"#utility.yul\":4579:4672   */\n      tag_116\n      jump\t// in\n    tag_204:\n        /* \"#utility.yul\":4697:4699   */\n      0x20\n        /* \"#utility.yul\":4692:4695   */\n      dup3\n        /* \"#utility.yul\":4688:4700   */\n      add\n        /* \"#utility.yul\":4681:4700   */\n      swap1\n      pop\n        /* \"#utility.yul\":4340:4706   */\n      swap2\n      swap1\n      pop\n      jump\t// out\n        /* \"#utility.yul\":4712:5131   */\n    tag_36:\n        /* \"#utility.yul\":4878:4882   */\n      0x00\n        /* \"#utility.yul\":4916:4918   */\n      0x20\n        /* \"#utility.yul\":4905:4914   */\n      dup3\n        /* \"#utility.yul\":4901:4919   */\n      add\n        /* \"#utility.yul\":4893:4919   */\n      swap1\n      pop\n        /* \"#utility.yul\":4965:4974   */\n      dup2\n        /* \"#utility.yul\":4959:4963   */\n      dup2\n        /* \"#utility.yul\":4955:4975   */\n      sub\n        /* \"#utility.yul\":4951:4952   */\n      0x00\n        /* \"#utility.yul\":4940:4949   */\n      dup4\n        /* \"#utility.yul\":4936:4953   */\n      add\n        /* \"#utility.yul\":4929:4976   */\n      mstore\n        /* \"#utility.yul\":4993:5124   */\n      tag_206\n        /* \"#utility.yul\":5119:5123   */\n      dup2\n        /* \"#utility.yul\":4993:5124   */\n      tag_117\n      jump\t// in\n    tag_206:\n        /* \"#utility.yul\":4985:5124   */\n      swap1\n      pop\n        /* \"#utility.yul\":4712:5131   */\n      swap2\n      swap1\n      pop\n      jump\t// out\n        /* \"#utility.yul\":5137:5362   */\n    tag_118:\n        /* \"#utility.yul\":5277:5311   */\n      0x4f776e61626c653a206e6577206f776e657220697320746865207a65726f2061\n        /* \"#utility.yul\":5273:5274   */\n      0x00\n        /* \"#utility.yul\":5265:5271   */\n      dup3\n        /* \"#utility.yul\":5261:5275   */\n      add\n        /* \"#utility.yul\":5254:5312   */\n      mstore\n        /* \"#utility.yul\":5346:5354   */\n      0x6464726573730000000000000000000000000000000000000000000000000000\n        /* \"#utility.yul\":5341:5343   */\n      0x20\n        /* \"#utility.yul\":5333:5339   */\n      dup3\n        /* \"#utility.yul\":5329:5344   */\n      add\n        /* \"#utility.yul\":5322:5355   */\n      mstore\n        /* \"#utility.yul\":5137:5362   */\n      pop\n      jump\t// out\n        /* \"#utility.yul\":5368:5734   */\n    tag_119:\n        /* \"#utility.yul\":5510:5513   */\n      0x00\n        /* \"#utility.yul\":5531:5598   */\n      tag_209\n        /* \"#utility.yul\":5595:5597   */\n      0x26\n        /* \"#utility.yul\":5590:5593   */\n      dup4\n        /* \"#utility.yul\":5531:5598   */\n      tag_115\n      jump\t// in\n    tag_209:\n        /* \"#utility.yul\":5524:5598   */\n      swap2\n      pop\n        /* \"#utility.yul\":5607:5700   */\n      tag_210\n        /* \"#utility.yul\":5696:5699   */\n      dup3\n        /* \"#utility.yul\":5607:5700   */\n      tag_118\n      jump\t// in\n    tag_210:\n        /* \"#utility.yul\":5725:5727   */\n      0x40\n        /* \"#utility.yul\":5720:5723   */\n      dup3\n        /* \"#utility.yul\":5716:5728   */\n      add\n        /* \"#utility.yul\":5709:5728   */\n      swap1\n      pop\n        /* \"#utility.yul\":5368:5734   */\n      swap2\n      swap1\n      pop\n      jump\t// out\n        /* \"#utility.yul\":5740:6159   */\n    tag_49:\n        /* \"#utility.yul\":5906:5910   */\n      0x00\n        /* \"#utility.yul\":5944:5946   */\n      0x20\n        /* \"#utility.yul\":5933:5942   */\n      dup3\n        /* \"#utility.yul\":5929:5947   */\n      add\n        /* \"#utility.yul\":5921:5947   */\n      swap1\n      pop\n        /* \"#utility.yul\":5993:6002   */\n      dup2\n        /* \"#utility.yul\":5987:5991   */\n      dup2\n        /* \"#utility.yul\":5983:6003   */\n      sub\n        /* \"#utility.yul\":5979:5980   */\n      0x00\n        /* \"#utility.yul\":5968:5977   */\n      dup4\n        /* \"#utility.yul\":5964:5981   */\n      add\n        /* \"#utility.yul\":5957:6004   */\n      mstore\n        /* \"#utility.yul\":6021:6152   */\n      tag_212\n        /* \"#utility.yul\":6147:6151   */\n      dup2\n        /* \"#utility.yul\":6021:6152   */\n      tag_119\n      jump\t// in\n    tag_212:\n        /* \"#utility.yul\":6013:6152   */\n      swap1\n      pop\n        /* \"#utility.yul\":5740:6159   */\n      swap2\n      swap1\n      pop\n      jump\t// out\n        /* \"#utility.yul\":6165:6259   */\n    tag_120:\n        /* \"#utility.yul\":6198:6206   */\n      0x00\n        /* \"#utility.yul\":6246:6251   */\n      dup2\n        /* \"#utility.yul\":6242:6244   */\n      0x60\n        /* \"#utility.yul\":6238:6252   */\n      shl\n        /* \"#utility.yul\":6217:6252   */\n      swap1\n      pop\n        /* \"#utility.yul\":6165:6259   */\n      swap2\n      swap1\n      pop\n      jump\t// out\n        /* \"#utility.yul\":6265:6359   */\n    tag_121:\n        /* \"#utility.yul\":6304:6311   */\n      0x00\n        /* \"#utility.yul\":6333:6353   */\n      tag_215\n        /* \"#utility.yul\":6347:6352   */\n      dup3\n        /* \"#utility.yul\":6333:6353   */\n      tag_120\n      jump\t// in\n    tag_215:\n        /* \"#utility.yul\":6322:6353   */\n      swap1\n      pop\n        /* \"#utility.yul\":6265:6359   */\n      swap2\n      swap1\n      pop\n      jump\t// out\n        /* \"#utility.yul\":6365:6465   */\n    tag_122:\n        /* \"#utility.yul\":6404:6411   */\n      0x00\n        /* \"#utility.yul\":6433:6459   */\n      tag_217\n        /* \"#utility.yul\":6453:6458   */\n      dup3\n        /* \"#utility.yul\":6433:6459   */\n      tag_121\n      jump\t// in\n    tag_217:\n        /* \"#utility.yul\":6422:6459   */\n      swap1\n      pop\n        /* \"#utility.yul\":6365:6465   */\n      swap2\n      swap1\n      pop\n      jump\t// out\n        /* \"#utility.yul\":6471:6628   */\n    tag_123:\n        /* \"#utility.yul\":6576:6621   */\n      tag_219\n        /* \"#utility.yul\":6596:6620   */\n      tag_220\n        /* \"#utility.yul\":6614:6619   */\n      dup3\n        /* \"#utility.yul\":6596:6620   */\n      tag_107\n      jump\t// in\n    tag_220:\n        /* \"#utility.yul\":6576:6621   */\n      tag_122\n      jump\t// in\n    tag_219:\n        /* \"#utility.yul\":6571:6574   */\n      dup3\n        /* \"#utility.yul\":6564:6622   */\n      mstore\n        /* \"#utility.yul\":6471:6628   */\n      pop\n      pop\n      jump\t// out\n        /* \"#utility.yul\":6634:6890   */\n    tag_58:\n        /* \"#utility.yul\":6746:6749   */\n      0x00\n        /* \"#utility.yul\":6761:6836   */\n      tag_222\n        /* \"#utility.yul\":6832:6835   */\n      dup3\n        /* \"#utility.yul\":6823:6829   */\n      dup5\n        /* \"#utility.yul\":6761:6836   */\n      tag_123\n      jump\t// in\n    tag_222:\n        /* \"#utility.yul\":6861:6863   */\n      0x14\n        /* \"#utility.yul\":6856:6859   */\n      dup3\n        /* \"#utility.yul\":6852:6864   */\n      add\n        /* \"#utility.yul\":6845:6864   */\n      swap2\n      pop\n        /* \"#utility.yul\":6881:6884   */\n      dup2\n        /* \"#utility.yul\":6874:6884   */\n      swap1\n      pop\n        /* \"#utility.yul\":6634:6890   */\n      swap3\n      swap2\n      pop\n      pop\n      jump\t// out\n        /* \"#utility.yul\":6896:7076   */\n    tag_62:\n        /* \"#utility.yul\":6944:7021   */\n      0x4e487b7100000000000000000000000000000000000000000000000000000000\n        /* \"#utility.yul\":6941:6942   */\n      0x00\n        /* \"#utility.yul\":6934:7022   */\n      mstore\n        /* \"#utility.yul\":7041:7045   */\n      0x41\n        /* \"#utility.yul\":7038:7039   */\n      0x04\n        /* \"#utility.yul\":7031:7046   */\n      mstore\n        /* \"#utility.yul\":7065:7069   */\n      0x24\n        /* \"#utility.yul\":7062:7063   */\n      0x00\n        /* \"#utility.yul\":7055:7070   */\n      revert\n        /* \"#utility.yul\":7082:7159   */\n    tag_124:\n        /* \"#utility.yul\":7119:7126   */\n      0x00\n        /* \"#utility.yul\":7148:7153   */\n      dup2\n        /* \"#utility.yul\":7137:7153   */\n      swap1\n      pop\n        /* \"#utility.yul\":7082:7159   */\n      swap2\n      swap1\n      pop\n      jump\t// out\n        /* \"#utility.yul\":7165:7273   */\n    tag_125:\n        /* \"#utility.yul\":7242:7266   */\n      tag_226\n        /* \"#utility.yul\":7260:7265   */\n      dup2\n        /* \"#utility.yul\":7242:7266   */\n      tag_124\n      jump\t// in\n    tag_226:\n        /* \"#utility.yul\":7237:7240   */\n      dup3\n        /* \"#utility.yul\":7230:7267   */\n      mstore\n        /* \"#utility.yul\":7165:7273   */\n      pop\n      pop\n      jump\t// out\n        /* \"#utility.yul\":7347:7694   */\n    tag_126:\n        /* \"#utility.yul\":7504:7508   */\n      0x20\n        /* \"#utility.yul\":7499:7502   */\n      dup3\n        /* \"#utility.yul\":7495:7509   */\n      add\n        /* \"#utility.yul\":7595:7599   */\n      0x00\n        /* \"#utility.yul\":7588:7593   */\n      dup3\n        /* \"#utility.yul\":7584:7600   */\n      add\n        /* \"#utility.yul\":7578:7601   */\n      mload\n        /* \"#utility.yul\":7614:7677   */\n      tag_228\n        /* \"#utility.yul\":7671:7675   */\n      0x00\n        /* \"#utility.yul\":7666:7669   */\n      dup6\n        /* \"#utility.yul\":7662:7676   */\n      add\n        /* \"#utility.yul\":7648:7660   */\n      dup3\n        /* \"#utility.yul\":7614:7677   */\n      tag_125\n      jump\t// in\n    tag_228:\n        /* \"#utility.yul\":7519:7687   */\n      pop\n        /* \"#utility.yul\":7473:7694   */\n      pop\n        /* \"#utility.yul\":7347:7694   */\n      pop\n      pop\n      jump\t// out\n        /* \"#utility.yul\":7700:8042   */\n    tag_68:\n        /* \"#utility.yul\":7853:7857   */\n      0x00\n        /* \"#utility.yul\":7891:7893   */\n      0x20\n        /* \"#utility.yul\":7880:7889   */\n      dup3\n        /* \"#utility.yul\":7876:7894   */\n      add\n        /* \"#utility.yul\":7868:7894   */\n      swap1\n      pop\n        /* \"#utility.yul\":7904:8035   */\n      tag_230\n        /* \"#utility.yul\":8032:8033   */\n      0x00\n        /* \"#utility.yul\":8021:8030   */\n      dup4\n        /* \"#utility.yul\":8017:8034   */\n      add\n        /* \"#utility.yul\":8008:8014   */\n      dup5\n        /* \"#utility.yul\":7904:8035   */\n      tag_126\n      jump\t// in\n    tag_230:\n        /* \"#utility.yul\":7700:8042   */\n      swap3\n      swap2\n      pop\n      pop\n      jump\t// out\n        /* \"#utility.yul\":8048:8163   */\n    tag_127:\n        /* \"#utility.yul\":8133:8156   */\n      tag_232\n        /* \"#utility.yul\":8150:8155   */\n      dup2\n        /* \"#utility.yul\":8133:8156   */\n      tag_101\n      jump\t// in\n    tag_232:\n        /* \"#utility.yul\":8128:8131   */\n      dup3\n        /* \"#utility.yul\":8121:8157   */\n      mstore\n        /* \"#utility.yul\":8048:8163   */\n      pop\n      pop\n      jump\t// out\n        /* \"#utility.yul\":8169:8267   */\n    tag_128:\n        /* \"#utility.yul\":8220:8226   */\n      0x00\n        /* \"#utility.yul\":8254:8259   */\n      dup2\n        /* \"#utility.yul\":8248:8260   */\n      mload\n        /* \"#utility.yul\":8238:8260   */\n      swap1\n      pop\n        /* \"#utility.yul\":8169:8267   */\n      swap2\n      swap1\n      pop\n      jump\t// out\n        /* \"#utility.yul\":8273:8431   */\n    tag_129:\n        /* \"#utility.yul\":8346:8357   */\n      0x00\n        /* \"#utility.yul\":8380:8386   */\n      dup3\n        /* \"#utility.yul\":8375:8378   */\n      dup3\n        /* \"#utility.yul\":8368:8387   */\n      mstore\n        /* \"#utility.yul\":8420:8424   */\n      0x20\n        /* \"#utility.yul\":8415:8418   */\n      dup3\n        /* \"#utility.yul\":8411:8425   */\n      add\n        /* \"#utility.yul\":8396:8425   */\n      swap1\n      pop\n        /* \"#utility.yul\":8273:8431   */\n      swap3\n      swap2\n      pop\n      pop\n      jump\t// out\n        /* \"#utility.yul\":8437:8683   */\n    tag_130:\n        /* \"#utility.yul\":8518:8519   */\n      0x00\n        /* \"#utility.yul\":8528:8641   */\n    tag_236:\n        /* \"#utility.yul\":8542:8548   */\n      dup4\n        /* \"#utility.yul\":8539:8540   */\n      dup2\n        /* \"#utility.yul\":8536:8549   */\n      lt\n        /* \"#utility.yul\":8528:8641   */\n      iszero\n      tag_238\n      jumpi\n        /* \"#utility.yul\":8627:8628   */\n      dup1\n        /* \"#utility.yul\":8622:8625   */\n      dup3\n        /* \"#utility.yul\":8618:8629   */\n      add\n        /* \"#utility.yul\":8612:8630   */\n      mload\n        /* \"#utility.yul\":8608:8609   */\n      dup2\n        /* \"#utility.yul\":8603:8606   */\n      dup5\n        /* \"#utility.yul\":8599:8610   */\n      add\n        /* \"#utility.yul\":8592:8631   */\n      mstore\n        /* \"#utility.yul\":8564:8566   */\n      0x20\n        /* \"#utility.yul\":8561:8562   */\n      dup2\n        /* \"#utility.yul\":8557:8567   */\n      add\n        /* \"#utility.yul\":8552:8567   */\n      swap1\n      pop\n        /* \"#utility.yul\":8528:8641   */\n      jump(tag_236)\n    tag_238:\n        /* \"#utility.yul\":8675:8676   */\n      0x00\n        /* \"#utility.yul\":8666:8672   */\n      dup5\n        /* \"#utility.yul\":8661:8664   */\n      dup5\n        /* \"#utility.yul\":8657:8673   */\n      add\n        /* \"#utility.yul\":8650:8677   */\n      mstore\n        /* \"#utility.yul\":8499:8683   */\n      pop\n        /* \"#utility.yul\":8437:8683   */\n      pop\n      pop\n      pop\n      jump\t// out\n        /* \"#utility.yul\":8689:8791   */\n    tag_131:\n        /* \"#utility.yul\":8730:8736   */\n      0x00\n        /* \"#utility.yul\":8781:8783   */\n      0x1f\n        /* \"#utility.yul\":8777:8784   */\n      not\n        /* \"#utility.yul\":8772:8774   */\n      0x1f\n        /* \"#utility.yul\":8765:8770   */\n      dup4\n        /* \"#utility.yul\":8761:8775   */\n      add\n        /* \"#utility.yul\":8757:8785   */\n      and\n        /* \"#utility.yul\":8747:8785   */\n      swap1\n      pop\n        /* \"#utility.yul\":8689:8791   */\n      swap2\n      swap1\n      pop\n      jump\t// out\n        /* \"#utility.yul\":8797:9150   */\n    tag_132:\n        /* \"#utility.yul\":8873:8876   */\n      0x00\n        /* \"#utility.yul\":8901:8939   */\n      tag_241\n        /* \"#utility.yul\":8933:8938   */\n      dup3\n        /* \"#utility.yul\":8901:8939   */\n      tag_128\n      jump\t// in\n    tag_241:\n        /* \"#utility.yul\":8955:9015   */\n      tag_242\n        /* \"#utility.yul\":9008:9014   */\n      dup2\n        /* \"#utility.yul\":9003:9006   */\n      dup6\n        /* \"#utility.yul\":8955:9015   */\n      tag_129\n      jump\t// in\n    tag_242:\n        /* \"#utility.yul\":8948:9015   */\n      swap4\n      pop\n        /* \"#utility.yul\":9024:9089   */\n      tag_243\n        /* \"#utility.yul\":9082:9088   */\n      dup2\n        /* \"#utility.yul\":9077:9080   */\n      dup6\n        /* \"#utility.yul\":9070:9074   */\n      0x20\n        /* \"#utility.yul\":9063:9068   */\n      dup7\n        /* \"#utility.yul\":9059:9075   */\n      add\n        /* \"#utility.yul\":9024:9089   */\n      tag_130\n      jump\t// in\n    tag_243:\n        /* \"#utility.yul\":9114:9143   */\n      tag_244\n        /* \"#utility.yul\":9136:9142   */\n      dup2\n        /* \"#utility.yul\":9114:9143   */\n      tag_131\n      jump\t// in\n    tag_244:\n        /* \"#utility.yul\":9109:9112   */\n      dup5\n        /* \"#utility.yul\":9105:9144   */\n      add\n        /* \"#utility.yul\":9098:9144   */\n      swap2\n      pop\n        /* \"#utility.yul\":8877:9150   */\n      pop\n        /* \"#utility.yul\":8797:9150   */\n      swap3\n      swap2\n      pop\n      pop\n      jump\t// out\n        /* \"#utility.yul\":9156:9300   */\n    tag_133:\n        /* \"#utility.yul\":9253:9259   */\n      0x00\n        /* \"#utility.yul\":9287:9292   */\n      dup2\n        /* \"#utility.yul\":9281:9293   */\n      mload\n        /* \"#utility.yul\":9271:9293   */\n      swap1\n      pop\n        /* \"#utility.yul\":9156:9300   */\n      swap2\n      swap1\n      pop\n      jump\t// out\n        /* \"#utility.yul\":9306:9510   */\n    tag_134:\n        /* \"#utility.yul\":9425:9436   */\n      0x00\n        /* \"#utility.yul\":9459:9465   */\n      dup3\n        /* \"#utility.yul\":9454:9457   */\n      dup3\n        /* \"#utility.yul\":9447:9466   */\n      mstore\n        /* \"#utility.yul\":9499:9503   */\n      0x20\n        /* \"#utility.yul\":9494:9497   */\n      dup3\n        /* \"#utility.yul\":9490:9504   */\n      add\n        /* \"#utility.yul\":9475:9504   */\n      swap1\n      pop\n        /* \"#utility.yul\":9306:9510   */\n      swap3\n      swap2\n      pop\n      pop\n      jump\t// out\n        /* \"#utility.yul\":9516:9678   */\n    tag_135:\n        /* \"#utility.yul\":9613:9617   */\n      0x00\n        /* \"#utility.yul\":9636:9639   */\n      dup2\n        /* \"#utility.yul\":9628:9639   */\n      swap1\n      pop\n        /* \"#utility.yul\":9666:9670   */\n      0x20\n        /* \"#utility.yul\":9661:9664   */\n      dup3\n        /* \"#utility.yul\":9657:9671   */\n      add\n        /* \"#utility.yul\":9649:9671   */\n      swap1\n      pop\n        /* \"#utility.yul\":9516:9678   */\n      swap2\n      swap1\n      pop\n      jump\t// out\n        /* \"#utility.yul\":9684:9792   */\n    tag_136:\n        /* \"#utility.yul\":9761:9785   */\n      tag_249\n        /* \"#utility.yul\":9779:9784   */\n      dup2\n        /* \"#utility.yul\":9761:9785   */\n      tag_107\n      jump\t// in\n    tag_249:\n        /* \"#utility.yul\":9756:9759   */\n      dup3\n        /* \"#utility.yul\":9749:9786   */\n      mstore\n        /* \"#utility.yul\":9684:9792   */\n      pop\n      pop\n      jump\t// out\n        /* \"#utility.yul\":9866:10376   */\n    tag_137:\n        /* \"#utility.yul\":10013:10017   */\n      0x40\n        /* \"#utility.yul\":10008:10011   */\n      dup3\n        /* \"#utility.yul\":10004:10018   */\n      add\n        /* \"#utility.yul\":10101:10105   */\n      0x00\n        /* \"#utility.yul\":10094:10099   */\n      dup3\n        /* \"#utility.yul\":10090:10106   */\n      add\n        /* \"#utility.yul\":10084:10107   */\n      mload\n        /* \"#utility.yul\":10120:10183   */\n      tag_251\n        /* \"#utility.yul\":10177:10181   */\n      0x00\n        /* \"#utility.yul\":10172:10175   */\n      dup6\n        /* \"#utility.yul\":10168:10182   */\n      add\n        /* \"#utility.yul\":10154:10166   */\n      dup3\n        /* \"#utility.yul\":10120:10183   */\n      tag_136\n      jump\t// in\n    tag_251:\n        /* \"#utility.yul\":10028:10193   */\n      pop\n        /* \"#utility.yul\":10277:10281   */\n      0x20\n        /* \"#utility.yul\":10270:10275   */\n      dup3\n        /* \"#utility.yul\":10266:10282   */\n      add\n        /* \"#utility.yul\":10260:10283   */\n      mload\n        /* \"#utility.yul\":10296:10359   */\n      tag_252\n        /* \"#utility.yul\":10353:10357   */\n      0x20\n        /* \"#utility.yul\":10348:10351   */\n      dup6\n        /* \"#utility.yul\":10344:10358   */\n      add\n        /* \"#utility.yul\":10330:10342   */\n      dup3\n        /* \"#utility.yul\":10296:10359   */\n      tag_125\n      jump\t// in\n    tag_252:\n        /* \"#utility.yul\":10203:10369   */\n      pop\n        /* \"#utility.yul\":9982:10376   */\n      pop\n        /* \"#utility.yul\":9866:10376   */\n      pop\n      pop\n      jump\t// out\n        /* \"#utility.yul\":10382:10681   */\n    tag_138:\n        /* \"#utility.yul\":10511:10521   */\n      0x00\n        /* \"#utility.yul\":10532:10638   */\n      tag_254\n        /* \"#utility.yul\":10634:10637   */\n      dup4\n        /* \"#utility.yul\":10626:10632   */\n      dup4\n        /* \"#utility.yul\":10532:10638   */\n      tag_137\n      jump\t// in\n    tag_254:\n        /* \"#utility.yul\":10670:10674   */\n      0x40\n        /* \"#utility.yul\":10665:10668   */\n      dup4\n        /* \"#utility.yul\":10661:10675   */\n      add\n        /* \"#utility.yul\":10647:10675   */\n      swap1\n      pop\n        /* \"#utility.yul\":10382:10681   */\n      swap3\n      swap2\n      pop\n      pop\n      jump\t// out\n        /* \"#utility.yul\":10687:10830   */\n    tag_139:\n        /* \"#utility.yul\":10787:10791   */\n      0x00\n        /* \"#utility.yul\":10819:10823   */\n      0x20\n        /* \"#utility.yul\":10814:10817   */\n      dup3\n        /* \"#utility.yul\":10810:10824   */\n      add\n        /* \"#utility.yul\":10802:10824   */\n      swap1\n      pop\n        /* \"#utility.yul\":10687:10830   */\n      swap2\n      swap1\n      pop\n      jump\t// out\n        /* \"#utility.yul\":10908:11860   */\n    tag_140:\n        /* \"#utility.yul\":11077:11080   */\n      0x00\n        /* \"#utility.yul\":11106:11190   */\n      tag_257\n        /* \"#utility.yul\":11184:11189   */\n      dup3\n        /* \"#utility.yul\":11106:11190   */\n      tag_133\n      jump\t// in\n    tag_257:\n        /* \"#utility.yul\":11206:11312   */\n      tag_258\n        /* \"#utility.yul\":11305:11311   */\n      dup2\n        /* \"#utility.yul\":11300:11303   */\n      dup6\n        /* \"#utility.yul\":11206:11312   */\n      tag_134\n      jump\t// in\n    tag_258:\n        /* \"#utility.yul\":11199:11312   */\n      swap4\n      pop\n        /* \"#utility.yul\":11336:11422   */\n      tag_259\n        /* \"#utility.yul\":11416:11421   */\n      dup4\n        /* \"#utility.yul\":11336:11422   */\n      tag_135\n      jump\t// in\n    tag_259:\n        /* \"#utility.yul\":11445:11452   */\n      dup1\n        /* \"#utility.yul\":11476:11477   */\n      0x00\n        /* \"#utility.yul\":11461:11835   */\n    tag_260:\n        /* \"#utility.yul\":11486:11492   */\n      dup4\n        /* \"#utility.yul\":11483:11484   */\n      dup2\n        /* \"#utility.yul\":11480:11493   */\n      lt\n        /* \"#utility.yul\":11461:11835   */\n      iszero\n      tag_262\n      jumpi\n        /* \"#utility.yul\":11562:11568   */\n      dup2\n        /* \"#utility.yul\":11556:11569   */\n      mload\n        /* \"#utility.yul\":11589:11712   */\n      tag_263\n        /* \"#utility.yul\":11708:11711   */\n      dup9\n        /* \"#utility.yul\":11693:11706   */\n      dup3\n        /* \"#utility.yul\":11589:11712   */\n      tag_138\n      jump\t// in\n    tag_263:\n        /* \"#utility.yul\":11582:11712   */\n      swap8\n      pop\n        /* \"#utility.yul\":11735:11825   */\n      tag_264\n        /* \"#utility.yul\":11818:11824   */\n      dup4\n        /* \"#utility.yul\":11735:11825   */\n      tag_139\n      jump\t// in\n    tag_264:\n        /* \"#utility.yul\":11725:11825   */\n      swap3\n      pop\n        /* \"#utility.yul\":11521:11835   */\n      pop\n        /* \"#utility.yul\":11508:11509   */\n      0x01\n        /* \"#utility.yul\":11505:11506   */\n      dup2\n        /* \"#utility.yul\":11501:11510   */\n      add\n        /* \"#utility.yul\":11496:11510   */\n      swap1\n      pop\n        /* \"#utility.yul\":11461:11835   */\n      jump(tag_260)\n    tag_262:\n        /* \"#utility.yul\":11465:11479   */\n      pop\n        /* \"#utility.yul\":11851:11854   */\n      dup6\n        /* \"#utility.yul\":11844:11854   */\n      swap4\n      pop\n        /* \"#utility.yul\":11082:11860   */\n      pop\n      pop\n      pop\n        /* \"#utility.yul\":10908:11860   */\n      swap3\n      swap2\n      pop\n      pop\n      jump\t// out\n        /* \"#utility.yul\":11934:13390   */\n    tag_141:\n        /* \"#utility.yul\":12063:12066   */\n      0x00\n        /* \"#utility.yul\":12099:12103   */\n      0xa0\n        /* \"#utility.yul\":12094:12097   */\n      dup4\n        /* \"#utility.yul\":12090:12104   */\n      add\n        /* \"#utility.yul\":12190:12194   */\n      0x00\n        /* \"#utility.yul\":12183:12188   */\n      dup4\n        /* \"#utility.yul\":12179:12195   */\n      add\n        /* \"#utility.yul\":12173:12196   */\n      mload\n        /* \"#utility.yul\":12243:12246   */\n      dup5\n        /* \"#utility.yul\":12237:12241   */\n      dup3\n        /* \"#utility.yul\":12233:12247   */\n      sub\n        /* \"#utility.yul\":12226:12230   */\n      0x00\n        /* \"#utility.yul\":12221:12224   */\n      dup7\n        /* \"#utility.yul\":12217:12231   */\n      add\n        /* \"#utility.yul\":12210:12248   */\n      mstore\n        /* \"#utility.yul\":12269:12340   */\n      tag_266\n        /* \"#utility.yul\":12335:12339   */\n      dup3\n        /* \"#utility.yul\":12321:12333   */\n      dup3\n        /* \"#utility.yul\":12269:12340   */\n      tag_132\n      jump\t// in\n    tag_266:\n        /* \"#utility.yul\":12261:12340   */\n      swap2\n      pop\n        /* \"#utility.yul\":12114:12351   */\n      pop\n        /* \"#utility.yul\":12433:12437   */\n      0x20\n        /* \"#utility.yul\":12426:12431   */\n      dup4\n        /* \"#utility.yul\":12422:12438   */\n      add\n        /* \"#utility.yul\":12416:12439   */\n      mload\n        /* \"#utility.yul\":12486:12489   */\n      dup5\n        /* \"#utility.yul\":12480:12484   */\n      dup3\n        /* \"#utility.yul\":12476:12490   */\n      sub\n        /* \"#utility.yul\":12469:12473   */\n      0x20\n        /* \"#utility.yul\":12464:12467   */\n      dup7\n        /* \"#utility.yul\":12460:12474   */\n      add\n        /* \"#utility.yul\":12453:12491   */\n      mstore\n        /* \"#utility.yul\":12512:12583   */\n      tag_267\n        /* \"#utility.yul\":12578:12582   */\n      dup3\n        /* \"#utility.yul\":12564:12576   */\n      dup3\n        /* \"#utility.yul\":12512:12583   */\n      tag_132\n      jump\t// in\n    tag_267:\n        /* \"#utility.yul\":12504:12583   */\n      swap2\n      pop\n        /* \"#utility.yul\":12361:12594   */\n      pop\n        /* \"#utility.yul\":12684:12688   */\n      0x40\n        /* \"#utility.yul\":12677:12682   */\n      dup4\n        /* \"#utility.yul\":12673:12689   */\n      add\n        /* \"#utility.yul\":12667:12690   */\n      mload\n        /* \"#utility.yul\":12737:12740   */\n      dup5\n        /* \"#utility.yul\":12731:12735   */\n      dup3\n        /* \"#utility.yul\":12727:12741   */\n      sub\n        /* \"#utility.yul\":12720:12724   */\n      0x40\n        /* \"#utility.yul\":12715:12718   */\n      dup7\n        /* \"#utility.yul\":12711:12725   */\n      add\n        /* \"#utility.yul\":12704:12742   */\n      mstore\n        /* \"#utility.yul\":12763:12926   */\n      tag_268\n        /* \"#utility.yul\":12921:12925   */\n      dup3\n        /* \"#utility.yul\":12907:12919   */\n      dup3\n        /* \"#utility.yul\":12763:12926   */\n      tag_140\n      jump\t// in\n    tag_268:\n        /* \"#utility.yul\":12755:12926   */\n      swap2\n      pop\n        /* \"#utility.yul\":12604:12937   */\n      pop\n        /* \"#utility.yul\":13023:13027   */\n      0x60\n        /* \"#utility.yul\":13016:13021   */\n      dup4\n        /* \"#utility.yul\":13012:13028   */\n      add\n        /* \"#utility.yul\":13006:13029   */\n      mload\n        /* \"#utility.yul\":13042:13105   */\n      tag_269\n        /* \"#utility.yul\":13099:13103   */\n      0x60\n        /* \"#utility.yul\":13094:13097   */\n      dup7\n        /* \"#utility.yul\":13090:13104   */\n      add\n        /* \"#utility.yul\":13076:13088   */\n      dup3\n        /* \"#utility.yul\":13042:13105   */\n      tag_136\n      jump\t// in\n    tag_269:\n        /* \"#utility.yul\":12947:13115   */\n      pop\n        /* \"#utility.yul\":13202:13206   */\n      0x80\n        /* \"#utility.yul\":13195:13200   */\n      dup4\n        /* \"#utility.yul\":13191:13207   */\n      add\n        /* \"#utility.yul\":13185:13208   */\n      mload\n        /* \"#utility.yul\":13255:13258   */\n      dup5\n        /* \"#utility.yul\":13249:13253   */\n      dup3\n        /* \"#utility.yul\":13245:13259   */\n      sub\n        /* \"#utility.yul\":13238:13242   */\n      0x80\n        /* \"#utility.yul\":13233:13236   */\n      dup7\n        /* \"#utility.yul\":13229:13243   */\n      add\n        /* \"#utility.yul\":13222:13260   */\n      mstore\n        /* \"#utility.yul\":13281:13352   */\n      tag_270\n        /* \"#utility.yul\":13347:13351   */\n      dup3\n        /* \"#utility.yul\":13333:13345   */\n      dup3\n        /* \"#utility.yul\":13281:13352   */\n      tag_132\n      jump\t// in\n    tag_270:\n        /* \"#utility.yul\":13273:13352   */\n      swap2\n      pop\n        /* \"#utility.yul\":13125:13363   */\n      pop\n        /* \"#utility.yul\":13380:13384   */\n      dup1\n        /* \"#utility.yul\":13373:13384   */\n      swap2\n      pop\n        /* \"#utility.yul\":12068:13390   */\n      pop\n        /* \"#utility.yul\":11934:13390   */\n      swap3\n      swap2\n      pop\n      pop\n      jump\t// out\n        /* \"#utility.yul\":13396:13895   */\n    tag_70:\n        /* \"#utility.yul\":13575:13579   */\n      0x00\n        /* \"#utility.yul\":13613:13615   */\n      0x40\n        /* \"#utility.yul\":13602:13611   */\n      dup3\n        /* \"#utility.yul\":13598:13616   */\n      add\n        /* \"#utility.yul\":13590:13616   */\n      swap1\n      pop\n        /* \"#utility.yul\":13626:13695   */\n      tag_272\n        /* \"#utility.yul\":13692:13693   */\n      0x00\n        /* \"#utility.yul\":13681:13690   */\n      dup4\n        /* \"#utility.yul\":13677:13694   */\n      add\n        /* \"#utility.yul\":13668:13674   */\n      dup6\n        /* \"#utility.yul\":13626:13695   */\n      tag_127\n      jump\t// in\n    tag_272:\n        /* \"#utility.yul\":13742:13751   */\n      dup2\n        /* \"#utility.yul\":13736:13740   */\n      dup2\n        /* \"#utility.yul\":13732:13752   */\n      sub\n        /* \"#utility.yul\":13727:13729   */\n      0x20\n        /* \"#utility.yul\":13716:13725   */\n      dup4\n        /* \"#utility.yul\":13712:13730   */\n      add\n        /* \"#utility.yul\":13705:13753   */\n      mstore\n        /* \"#utility.yul\":13770:13888   */\n      tag_273\n        /* \"#utility.yul\":13883:13887   */\n      dup2\n        /* \"#utility.yul\":13874:13880   */\n      dup5\n        /* \"#utility.yul\":13770:13888   */\n      tag_141\n      jump\t// in\n    tag_273:\n        /* \"#utility.yul\":13762:13888   */\n      swap1\n      pop\n        /* \"#utility.yul\":13396:13895   */\n      swap4\n      swap3\n      pop\n      pop\n      pop\n      jump\t// out\n        /* \"#utility.yul\":13901:14023   */\n    tag_142:\n        /* \"#utility.yul\":13974:13998   */\n      tag_275\n        /* \"#utility.yul\":13992:13997   */\n      dup2\n        /* \"#utility.yul\":13974:13998   */\n      tag_124\n      jump\t// in\n    tag_275:\n        /* \"#utility.yul\":13967:13972   */\n      dup2\n        /* \"#utility.yul\":13964:13999   */\n      eq\n        /* \"#utility.yul\":13954:14017   */\n      tag_276\n      jumpi\n        /* \"#utility.yul\":14013:14014   */\n      0x00\n        /* \"#utility.yul\":14010:14011   */\n      dup1\n        /* \"#utility.yul\":14003:14015   */\n      revert\n        /* \"#utility.yul\":13954:14017   */\n    tag_276:\n        /* \"#utility.yul\":13901:14023   */\n      pop\n      jump\t// out\n        /* \"#utility.yul\":14029:14172   */\n    tag_143:\n        /* \"#utility.yul\":14086:14091   */\n      0x00\n        /* \"#utility.yul\":14117:14123   */\n      dup2\n        /* \"#utility.yul\":14111:14124   */\n      mload\n        /* \"#utility.yul\":14102:14124   */\n      swap1\n      pop\n        /* \"#utility.yul\":14133:14166   */\n      tag_278\n        /* \"#utility.yul\":14160:14165   */\n      dup2\n        /* \"#utility.yul\":14133:14166   */\n      tag_142\n      jump\t// in\n    tag_278:\n        /* \"#utility.yul\":14029:14172   */\n      swap3\n      swap2\n      pop\n      pop\n      jump\t// out\n        /* \"#utility.yul\":14178:14529   */\n    tag_74:\n        /* \"#utility.yul\":14248:14254   */\n      0x00\n        /* \"#utility.yul\":14297:14299   */\n      0x20\n        /* \"#utility.yul\":14285:14294   */\n      dup3\n        /* \"#utility.yul\":14276:14283   */\n      dup5\n        /* \"#utility.yul\":14272:14295   */\n      sub\n        /* \"#utility.yul\":14268:14300   */\n      slt\n        /* \"#utility.yul\":14265:14384   */\n      iszero\n      tag_280\n      jumpi\n        /* \"#utility.yul\":14303:14382   */\n      tag_281\n      tag_99\n      jump\t// in\n    tag_281:\n        /* \"#utility.yul\":14265:14384   */\n    tag_280:\n        /* \"#utility.yul\":14423:14424   */\n      0x00\n        /* \"#utility.yul\":14448:14512   */\n      tag_282\n        /* \"#utility.yul\":14504:14511   */\n      dup5\n        /* \"#utility.yul\":14495:14501   */\n      dup3\n        /* \"#utility.yul\":14484:14493   */\n      dup6\n        /* \"#utility.yul\":14480:14502   */\n      add\n        /* \"#utility.yul\":14448:14512   */\n      tag_143\n      jump\t// in\n    tag_282:\n        /* \"#utility.yul\":14438:14512   */\n      swap2\n      pop\n        /* \"#utility.yul\":14394:14522   */\n      pop\n        /* \"#utility.yul\":14178:14529   */\n      swap3\n      swap2\n      pop\n      pop\n      jump\t// out\n        /* \"#utility.yul\":14535:14653   */\n    tag_144:\n        /* \"#utility.yul\":14622:14646   */\n      tag_284\n        /* \"#utility.yul\":14640:14645   */\n      dup2\n        /* \"#utility.yul\":14622:14646   */\n      tag_124\n      jump\t// in\n    tag_284:\n        /* \"#utility.yul\":14617:14620   */\n      dup3\n        /* \"#utility.yul\":14610:14647   */\n      mstore\n        /* \"#utility.yul\":14535:14653   */\n      pop\n      pop\n      jump\t// out\n        /* \"#utility.yul\":14659:14991   */\n    tag_85:\n        /* \"#utility.yul\":14780:14784   */\n      0x00\n        /* \"#utility.yul\":14818:14820   */\n      0x40\n        /* \"#utility.yul\":14807:14816   */\n      dup3\n        /* \"#utility.yul\":14803:14821   */\n      add\n        /* \"#utility.yul\":14795:14821   */\n      swap1\n      pop\n        /* \"#utility.yul\":14831:14902   */\n      tag_286\n        /* \"#utility.yul\":14899:14900   */\n      0x00\n        /* \"#utility.yul\":14888:14897   */\n      dup4\n        /* \"#utility.yul\":14884:14901   */\n      add\n        /* \"#utility.yul\":14875:14881   */\n      dup6\n        /* \"#utility.yul\":14831:14902   */\n      tag_144\n      jump\t// in\n    tag_286:\n        /* \"#utility.yul\":14912:14984   */\n      tag_287\n        /* \"#utility.yul\":14980:14982   */\n      0x20\n        /* \"#utility.yul\":14969:14978   */\n      dup4\n        /* \"#utility.yul\":14965:14983   */\n      add\n        /* \"#utility.yul\":14956:14962   */\n      dup5\n        /* \"#utility.yul\":14912:14984   */\n      tag_144\n      jump\t// in\n    tag_287:\n        /* \"#utility.yul\":14659:14991   */\n      swap4\n      swap3\n      pop\n      pop\n      pop\n      jump\t// out\n        /* \"#utility.yul\":14997:15119   */\n    tag_145:\n        /* \"#utility.yul\":15070:15094   */\n      tag_289\n        /* \"#utility.yul\":15088:15093   */\n      dup2\n        /* \"#utility.yul\":15070:15094   */\n      tag_113\n      jump\t// in\n    tag_289:\n        /* \"#utility.yul\":15063:15068   */\n      dup2\n        /* \"#utility.yul\":15060:15095   */\n      eq\n        /* \"#utility.yul\":15050:15113   */\n      tag_290\n      jumpi\n        /* \"#utility.yul\":15109:15110   */\n      0x00\n        /* \"#utility.yul\":15106:15107   */\n      dup1\n        /* \"#utility.yul\":15099:15111   */\n      revert\n        /* \"#utility.yul\":15050:15113   */\n    tag_290:\n        /* \"#utility.yul\":14997:15119   */\n      pop\n      jump\t// out\n        /* \"#utility.yul\":15125:15268   */\n    tag_146:\n        /* \"#utility.yul\":15182:15187   */\n      0x00\n        /* \"#utility.yul\":15213:15219   */\n      dup2\n        /* \"#utility.yul\":15207:15220   */\n      mload\n        /* \"#utility.yul\":15198:15220   */\n      swap1\n      pop\n        /* \"#utility.yul\":15229:15262   */\n      tag_292\n        /* \"#utility.yul\":15256:15261   */\n      dup2\n        /* \"#utility.yul\":15229:15262   */\n      tag_145\n      jump\t// in\n    tag_292:\n        /* \"#utility.yul\":15125:15268   */\n      swap3\n      swap2\n      pop\n      pop\n      jump\t// out\n        /* \"#utility.yul\":15274:15625   */\n    tag_90:\n        /* \"#utility.yul\":15344:15350   */\n      0x00\n        /* \"#utility.yul\":15393:15395   */\n      0x20\n        /* \"#utility.yul\":15381:15390   */\n      dup3\n        /* \"#utility.yul\":15372:15379   */\n      dup5\n        /* \"#utility.yul\":15368:15391   */\n      sub\n        /* \"#utility.yul\":15364:15396   */\n      slt\n        /* \"#utility.yul\":15361:15480   */\n      iszero\n      tag_294\n      jumpi\n        /* \"#utility.yul\":15399:15478   */\n      tag_295\n      tag_99\n      jump\t// in\n    tag_295:\n        /* \"#utility.yul\":15361:15480   */\n    tag_294:\n        /* \"#utility.yul\":15519:15520   */\n      0x00\n        /* \"#utility.yul\":15544:15608   */\n      tag_296\n        /* \"#utility.yul\":15600:15607   */\n      dup5\n        /* \"#utility.yul\":15591:15597   */\n      dup3\n        /* \"#utility.yul\":15580:15589   */\n      dup6\n        /* \"#utility.yul\":15576:15598   */\n      add\n        /* \"#utility.yul\":15544:15608   */\n      tag_146\n      jump\t// in\n    tag_296:\n        /* \"#utility.yul\":15534:15608   */\n      swap2\n      pop\n        /* \"#utility.yul\":15490:15618   */\n      pop\n        /* \"#utility.yul\":15274:15625   */\n      swap3\n      swap2\n      pop\n      pop\n      jump\t// out\n        /* \"#utility.yul\":15631:16172   */\n    tag_92:\n        /* \"#utility.yul\":15802:15806   */\n      0x00\n        /* \"#utility.yul\":15840:15843   */\n      0x80\n        /* \"#utility.yul\":15829:15838   */\n      dup3\n        /* \"#utility.yul\":15825:15844   */\n      add\n        /* \"#utility.yul\":15817:15844   */\n      swap1\n      pop\n        /* \"#utility.yul\":15854:15925   */\n      tag_298\n        /* \"#utility.yul\":15922:15923   */\n      0x00\n        /* \"#utility.yul\":15911:15920   */\n      dup4\n        /* \"#utility.yul\":15907:15924   */\n      add\n        /* \"#utility.yul\":15898:15904   */\n      dup8\n        /* \"#utility.yul\":15854:15925   */\n      tag_108\n      jump\t// in\n    tag_298:\n        /* \"#utility.yul\":15935:16001   */\n      tag_299\n        /* \"#utility.yul\":15997:15999   */\n      0x20\n        /* \"#utility.yul\":15986:15995   */\n      dup4\n        /* \"#utility.yul\":15982:16000   */\n      add\n        /* \"#utility.yul\":15973:15979   */\n      dup7\n        /* \"#utility.yul\":15935:16001   */\n      tag_105\n      jump\t// in\n    tag_299:\n        /* \"#utility.yul\":16011:16083   */\n      tag_300\n        /* \"#utility.yul\":16079:16081   */\n      0x40\n        /* \"#utility.yul\":16068:16077   */\n      dup4\n        /* \"#utility.yul\":16064:16082   */\n      add\n        /* \"#utility.yul\":16055:16061   */\n      dup6\n        /* \"#utility.yul\":16011:16083   */\n      tag_108\n      jump\t// in\n    tag_300:\n        /* \"#utility.yul\":16093:16165   */\n      tag_301\n        /* \"#utility.yul\":16161:16163   */\n      0x60\n        /* \"#utility.yul\":16150:16159   */\n      dup4\n        /* \"#utility.yul\":16146:16164   */\n      add\n        /* \"#utility.yul\":16137:16143   */\n      dup5\n        /* \"#utility.yul\":16093:16165   */\n      tag_144\n      jump\t// in\n    tag_301:\n        /* \"#utility.yul\":15631:16172   */\n      swap6\n      swap5\n      pop\n      pop\n      pop\n      pop\n      pop\n      jump\t// out\n        /* \"#utility.yul\":16178:16398   */\n    tag_147:\n        /* \"#utility.yul\":16318:16352   */\n      0x44657374696e6174696f6e20636861696e206e6f7420616c6c6f776c69737465\n        /* \"#utility.yul\":16314:16315   */\n      0x00\n        /* \"#utility.yul\":16306:16312   */\n      dup3\n        /* \"#utility.yul\":16302:16316   */\n      add\n        /* \"#utility.yul\":16295:16353   */\n      mstore\n        /* \"#utility.yul\":16387:16390   */\n      0x6400000000000000000000000000000000000000000000000000000000000000\n        /* \"#utility.yul\":16382:16384   */\n      0x20\n        /* \"#utility.yul\":16374:16380   */\n      dup3\n        /* \"#utility.yul\":16370:16385   */\n      add\n        /* \"#utility.yul\":16363:16391   */\n      mstore\n        /* \"#utility.yul\":16178:16398   */\n      pop\n      jump\t// out\n        /* \"#utility.yul\":16404:16770   */\n    tag_148:\n        /* \"#utility.yul\":16546:16549   */\n      0x00\n        /* \"#utility.yul\":16567:16634   */\n      tag_304\n        /* \"#utility.yul\":16631:16633   */\n      0x21\n        /* \"#utility.yul\":16626:16629   */\n      dup4\n        /* \"#utility.yul\":16567:16634   */\n      tag_115\n      jump\t// in\n    tag_304:\n        /* \"#utility.yul\":16560:16634   */\n      swap2\n      pop\n        /* \"#utility.yul\":16643:16736   */\n      tag_305\n        /* \"#utility.yul\":16732:16735   */\n      dup3\n        /* \"#utility.yul\":16643:16736   */\n      tag_147\n      jump\t// in\n    tag_305:\n        /* \"#utility.yul\":16761:16763   */\n      0x40\n        /* \"#utility.yul\":16756:16759   */\n      dup3\n        /* \"#utility.yul\":16752:16764   */\n      add\n        /* \"#utility.yul\":16745:16764   */\n      swap1\n      pop\n        /* \"#utility.yul\":16404:16770   */\n      swap2\n      swap1\n      pop\n      jump\t// out\n        /* \"#utility.yul\":16776:17195   */\n    tag_95:\n        /* \"#utility.yul\":16942:16946   */\n      0x00\n        /* \"#utility.yul\":16980:16982   */\n      0x20\n        /* \"#utility.yul\":16969:16978   */\n      dup3\n        /* \"#utility.yul\":16965:16983   */\n      add\n        /* \"#utility.yul\":16957:16983   */\n      swap1\n      pop\n        /* \"#utility.yul\":17029:17038   */\n      dup2\n        /* \"#utility.yul\":17023:17027   */\n      dup2\n        /* \"#utility.yul\":17019:17039   */\n      sub\n        /* \"#utility.yul\":17015:17016   */\n      0x00\n        /* \"#utility.yul\":17004:17013   */\n      dup4\n        /* \"#utility.yul\":17000:17017   */\n      add\n        /* \"#utility.yul\":16993:17040   */\n      mstore\n        /* \"#utility.yul\":17057:17188   */\n      tag_307\n        /* \"#utility.yul\":17183:17187   */\n      dup2\n        /* \"#utility.yul\":17057:17188   */\n      tag_148\n      jump\t// in\n    tag_307:\n        /* \"#utility.yul\":17049:17188   */\n      swap1\n      pop\n        /* \"#utility.yul\":16776:17195   */\n      swap2\n      swap1\n      pop\n      jump\t// out\n\n    auxdata: 0xa26469706673582212207bef1ca42795d87e4c0277f69e81699724fc2dd9a7306cc1ca631f15af4b59d064736f6c63430008160033\n}\n",
				"bytecode": {
					"linkReferences": {},
					"object": "608060405234801562000010575f80fd5b50604051620013383803806200133883398181016040528101906200003691906200020b565b620000566200004a620000de60201b60201c565b620000e560201b60201c565b8160015f6101000a81548173ffffffffffffffffffffffffffffffffffffffff021916908373ffffffffffffffffffffffffffffffffffffffff1602179055508060025f6101000a81548173ffffffffffffffffffffffffffffffffffffffff021916908373ffffffffffffffffffffffffffffffffffffffff160217905550505062000250565b5f33905090565b5f805f9054906101000a900473ffffffffffffffffffffffffffffffffffffffff169050815f806101000a81548173ffffffffffffffffffffffffffffffffffffffff021916908373ffffffffffffffffffffffffffffffffffffffff1602179055508173ffffffffffffffffffffffffffffffffffffffff168173ffffffffffffffffffffffffffffffffffffffff167f8be0079c531659141344cd1fd0a4f28419497f9722a3daafe3b4186f6b6457e060405160405180910390a35050565b5f80fd5b5f73ffffffffffffffffffffffffffffffffffffffff82169050919050565b5f620001d582620001aa565b9050919050565b620001e781620001c9565b8114620001f2575f80fd5b50565b5f815190506200020581620001dc565b92915050565b5f8060408385031215620002245762000223620001a6565b5b5f6200023385828601620001f5565b92505060206200024685828601620001f5565b9150509250929050565b6110da806200025e5f395ff3fe608060405234801561000f575f80fd5b5060043610610055575f3560e01c80630bb106eb14610059578063715018a6146100895780638da5cb5b14610093578063f2fde38b146100b1578063f4a786e4146100cd575b5f80fd5b610073600480360381019061006e919061092d565b6100fd565b6040516100809190610972565b60405180910390f35b61009161011a565b005b61009b6101a1565b6040516100a891906109ca565b60405180910390f35b6100cb60048036038101906100c69190610a0d565b6101c8565b005b6100e760048036038101906100e29190610a62565b6102be565b6040516100f49190610aca565b60405180910390f35b6003602052805f5260405f205f915054906101000a900460ff1681565b6101226107f6565b73ffffffffffffffffffffffffffffffffffffffff166101406101a1565b73ffffffffffffffffffffffffffffffffffffffff1614610196576040517f08c379a000000000000000000000000000000000000000000000000000000000815260040161018d90610b3d565b60405180910390fd5b61019f5f6107fd565b565b5f805f9054906101000a900473ffffffffffffffffffffffffffffffffffffffff16905090565b6101d06107f6565b73ffffffffffffffffffffffffffffffffffffffff166101ee6101a1565b73ffffffffffffffffffffffffffffffffffffffff1614610244576040517f08c379a000000000000000000000000000000000000000000000000000000000815260040161023b90610b3d565b60405180910390fd5b5f73ffffffffffffffffffffffffffffffffffffffff168173ffffffffffffffffffffffffffffffffffffffff16036102b2576040517f08c379a00000000000000000000000000000000000000000000000000000000081526004016102a990610bcb565b60405180910390fd5b6102bb816107fd565b50565b5f6102c76107f6565b73ffffffffffffffffffffffffffffffffffffffff166102e56101a1565b73ffffffffffffffffffffffffffffffffffffffff161461033b576040517f08c379a000000000000000000000000000000000000000000000000000000000815260040161033290610b3d565b60405180910390fd5b5f6040518060a00160405280856040516020016103589190610c2e565b60405160208183030381529060405281526020018460405160200161037d9190610972565b60405160208183030381529060405281526020015f67ffffffffffffffff8111156103ab576103aa610c48565b5b6040519080825280602002602001820160405280156103e457816020015b6103d16108be565b8152602001906001900390816103c95790505b50815260200160015f9054906101000a900473ffffffffffffffffffffffffffffffffffffffff1673ffffffffffffffffffffffffffffffffffffffff1681526020016040518060200160405280620186a08152506040516020016104499190610ca7565b60405160208183030381529060405281525090505f60025f9054906101000a900473ffffffffffffffffffffffffffffffffffffffff1673ffffffffffffffffffffffffffffffffffffffff166320487ded87846040518363ffffffff1660e01b81526004016104ba929190610ec5565b602060405180830381865afa1580156104d5573d5f803e3d5ffd5b505050506040513d601f19601f820116820180604052508101906104f99190610f1d565b90508060015f9054906101000a900473ffffffffffffffffffffffffffffffffffffffff1673ffffffffffffffffffffffffffffffffffffffff166370a08231306040518263ffffffff1660e01b815260040161055691906109ca565b602060405180830381865afa158015610571573d5f803e3d5ffd5b505050506040513d601f19601f820116820180604052508101906105959190610f1d565b10156106725760015f9054906101000a900473ffffffffffffffffffffffffffffffffffffffff1673ffffffffffffffffffffffffffffffffffffffff166370a08231306040518263ffffffff1660e01b81526004016105f591906109ca565b602060405180830381865afa158015610610573d5f803e3d5ffd5b505050506040513d601f19601f820116820180604052508101906106349190610f1d565b816040517f3d8d9b53000000000000000000000000000000000000000000000000000000008152600401610669929190610f57565b60405180910390fd5b60025f9054906101000a900473ffffffffffffffffffffffffffffffffffffffff1673ffffffffffffffffffffffffffffffffffffffff166396f4e9f98288856040518463ffffffff1660e01b81526004016106cf929190610ec5565b60206040518083038185885af11580156106eb573d5f803e3d5ffd5b50505050506040513d601f19601f820116820180604052508101906107109190610fa8565b92508567ffffffffffffffff16837fafce261979d2c73e371096c12c07fcdf3e86c7a2d12f7c3621836fca8b843f79878760015f9054906101000a900473ffffffffffffffffffffffffffffffffffffffff16866040516107749493929190610fd3565b60405180910390a360035f8767ffffffffffffffff1667ffffffffffffffff1681526020019081526020015f205f9054906101000a900460ff166107ed576040517f08c379a00000000000000000000000000000000000000000000000000000000081526004016107e490611086565b60405180910390fd5b50509392505050565b5f33905090565b5f805f9054906101000a900473ffffffffffffffffffffffffffffffffffffffff169050815f806101000a81548173ffffffffffffffffffffffffffffffffffffffff021916908373ffffffffffffffffffffffffffffffffffffffff1602179055508173ffffffffffffffffffffffffffffffffffffffff168173ffffffffffffffffffffffffffffffffffffffff167f8be0079c531659141344cd1fd0a4f28419497f9722a3daafe3b4186f6b6457e060405160405180910390a35050565b60405180604001604052805f73ffffffffffffffffffffffffffffffffffffffff1681526020015f81525090565b5f80fd5b5f67ffffffffffffffff82169050919050565b61090c816108f0565b8114610916575f80fd5b50565b5f8135905061092781610903565b92915050565b5f60208284031215610942576109416108ec565b5b5f61094f84828501610919565b91505092915050565b5f8115159050919050565b61096c81610958565b82525050565b5f6020820190506109855f830184610963565b92915050565b5f73ffffffffffffffffffffffffffffffffffffffff82169050919050565b5f6109b48261098b565b9050919050565b6109c4816109aa565b82525050565b5f6020820190506109dd5f8301846109bb565b92915050565b6109ec816109aa565b81146109f6575f80fd5b50565b5f81359050610a07816109e3565b92915050565b5f60208284031215610a2257610a216108ec565b5b5f610a2f848285016109f9565b91505092915050565b610a4181610958565b8114610a4b575f80fd5b50565b5f81359050610a5c81610a38565b92915050565b5f805f60608486031215610a7957610a786108ec565b5b5f610a8686828701610919565b9350506020610a97868287016109f9565b9250506040610aa886828701610a4e565b9150509250925092565b5f819050919050565b610ac481610ab2565b82525050565b5f602082019050610add5f830184610abb565b92915050565b5f82825260208201905092915050565b7f4f776e61626c653a2063616c6c6572206973206e6f7420746865206f776e65725f82015250565b5f610b27602083610ae3565b9150610b3282610af3565b602082019050919050565b5f6020820190508181035f830152610b5481610b1b565b9050919050565b7f4f776e61626c653a206e6577206f776e657220697320746865207a65726f20615f8201527f6464726573730000000000000000000000000000000000000000000000000000602082015250565b5f610bb5602683610ae3565b9150610bc082610b5b565b604082019050919050565b5f6020820190508181035f830152610be281610ba9565b9050919050565b5f8160601b9050919050565b5f610bff82610be9565b9050919050565b5f610c1082610bf5565b9050919050565b610c28610c23826109aa565b610c06565b82525050565b5f610c398284610c17565b60148201915081905092915050565b7f4e487b71000000000000000000000000000000000000000000000000000000005f52604160045260245ffd5b5f819050919050565b610c8781610c75565b82525050565b602082015f820151610ca15f850182610c7e565b50505050565b5f602082019050610cba5f830184610c8d565b92915050565b610cc9816108f0565b82525050565b5f81519050919050565b5f82825260208201905092915050565b5f5b83811015610d06578082015181840152602081019050610ceb565b5f8484015250505050565b5f601f19601f8301169050919050565b5f610d2b82610ccf565b610d358185610cd9565b9350610d45818560208601610ce9565b610d4e81610d11565b840191505092915050565b5f81519050919050565b5f82825260208201905092915050565b5f819050602082019050919050565b610d8b816109aa565b82525050565b604082015f820151610da55f850182610d82565b506020820151610db86020850182610c7e565b50505050565b5f610dc98383610d91565b60408301905092915050565b5f602082019050919050565b5f610deb82610d59565b610df58185610d63565b9350610e0083610d73565b805f5b83811015610e30578151610e178882610dbe565b9750610e2283610dd5565b925050600181019050610e03565b5085935050505092915050565b5f60a083015f8301518482035f860152610e578282610d21565b91505060208301518482036020860152610e718282610d21565b91505060408301518482036040860152610e8b8282610de1565b9150506060830151610ea06060860182610d82565b5060808301518482036080860152610eb88282610d21565b9150508091505092915050565b5f604082019050610ed85f830185610cc0565b8181036020830152610eea8184610e3d565b90509392505050565b610efc81610c75565b8114610f06575f80fd5b50565b5f81519050610f1781610ef3565b92915050565b5f60208284031215610f3257610f316108ec565b5b5f610f3f84828501610f09565b91505092915050565b610f5181610c75565b82525050565b5f604082019050610f6a5f830185610f48565b610f776020830184610f48565b9392505050565b610f8781610ab2565b8114610f91575f80fd5b50565b5f81519050610fa281610f7e565b92915050565b5f60208284031215610fbd57610fbc6108ec565b5b5f610fca84828501610f94565b91505092915050565b5f608082019050610fe65f8301876109bb565b610ff36020830186610963565b61100060408301856109bb565b61100d6060830184610f48565b95945050505050565b7f44657374696e6174696f6e20636861696e206e6f7420616c6c6f776c697374655f8201527f6400000000000000000000000000000000000000000000000000000000000000602082015250565b5f611070602183610ae3565b915061107b82611016565b604082019050919050565b5f6020820190508181035f83015261109d81611064565b905091905056fea26469706673582212207bef1ca42795d87e4c0277f69e81699724fc2dd9a7306cc1ca631f15af4b59d064736f6c63430008160033",
					"opcodes": "PUSH1 0x80 PUSH1 0x40 MSTORE CALLVALUE DUP1 ISZERO PUSH3 0x10 JUMPI PUSH0 DUP1 REVERT JUMPDEST POP PUSH1 0x40 MLOAD PUSH3 0x1338 CODESIZE SUB DUP1 PUSH3 0x1338 DUP4 CODECOPY DUP2 DUP2 ADD PUSH1 0x40 MSTORE DUP2 ADD SWAP1 PUSH3 0x36 SWAP2 SWAP1 PUSH3 0x20B JUMP JUMPDEST PUSH3 0x56 PUSH3 0x4A PUSH3 0xDE PUSH1 0x20 SHL PUSH1 0x20 SHR JUMP JUMPDEST PUSH3 0xE5 PUSH1 0x20 SHL PUSH1 0x20 SHR JUMP JUMPDEST DUP2 PUSH1 0x1 PUSH0 PUSH2 0x100 EXP DUP2 SLOAD DUP2 PUSH20 0xFFFFFFFFFFFFFFFFFFFFFFFFFFFFFFFFFFFFFFFF MUL NOT AND SWAP1 DUP4 PUSH20 0xFFFFFFFFFFFFFFFFFFFFFFFFFFFFFFFFFFFFFFFF AND MUL OR SWAP1 SSTORE POP DUP1 PUSH1 0x2 PUSH0 PUSH2 0x100 EXP DUP2 SLOAD DUP2 PUSH20 0xFFFFFFFFFFFFFFFFFFFFFFFFFFFFFFFFFFFFFFFF MUL NOT AND SWAP1 DUP4 PUSH20 0xFFFFFFFFFFFFFFFFFFFFFFFFFFFFFFFFFFFFFFFF AND MUL OR SWAP1 SSTORE POP POP POP PUSH3 0x250 JUMP JUMPDEST PUSH0 CALLER SWAP1 POP SWAP1 JUMP JUMPDEST PUSH0 DUP1 PUSH0 SWAP1 SLOAD SWAP1 PUSH2 0x100 EXP SWAP1 DIV PUSH20 0xFFFFFFFFFFFFFFFFFFFFFFFFFFFFFFFFFFFFFFFF AND SWAP1 POP DUP2 PUSH0 DUP1 PUSH2 0x100 EXP DUP2 SLOAD DUP2 PUSH20 0xFFFFFFFFFFFFFFFFFFFFFFFFFFFFFFFFFFFFFFFF MUL NOT AND SWAP1 DUP4 PUSH20 0xFFFFFFFFFFFFFFFFFFFFFFFFFFFFFFFFFFFFFFFF AND MUL OR SWAP1 SSTORE POP DUP2 PUSH20 0xFFFFFFFFFFFFFFFFFFFFFFFFFFFFFFFFFFFFFFFF AND DUP2 PUSH20 0xFFFFFFFFFFFFFFFFFFFFFFFFFFFFFFFFFFFFFFFF AND PUSH32 0x8BE0079C531659141344CD1FD0A4F28419497F9722A3DAAFE3B4186F6B6457E0 PUSH1 0x40 MLOAD PUSH1 0x40 MLOAD DUP1 SWAP2 SUB SWAP1 LOG3 POP POP JUMP JUMPDEST PUSH0 DUP1 REVERT JUMPDEST PUSH0 PUSH20 0xFFFFFFFFFFFFFFFFFFFFFFFFFFFFFFFFFFFFFFFF DUP3 AND SWAP1 POP SWAP2 SWAP1 POP JUMP JUMPDEST PUSH0 PUSH3 0x1D5 DUP3 PUSH3 0x1AA JUMP JUMPDEST SWAP1 POP SWAP2 SWAP1 POP JUMP JUMPDEST PUSH3 0x1E7 DUP2 PUSH3 0x1C9 JUMP JUMPDEST DUP2 EQ PUSH3 0x1F2 JUMPI PUSH0 DUP1 REVERT JUMPDEST POP JUMP JUMPDEST PUSH0 DUP2 MLOAD SWAP1 POP PUSH3 0x205 DUP2 PUSH3 0x1DC JUMP JUMPDEST SWAP3 SWAP2 POP POP JUMP JUMPDEST PUSH0 DUP1 PUSH1 0x40 DUP4 DUP6 SUB SLT ISZERO PUSH3 0x224 JUMPI PUSH3 0x223 PUSH3 0x1A6 JUMP JUMPDEST JUMPDEST PUSH0 PUSH3 0x233 DUP6 DUP3 DUP7 ADD PUSH3 0x1F5 JUMP JUMPDEST SWAP3 POP POP PUSH1 0x20 PUSH3 0x246 DUP6 DUP3 DUP7 ADD PUSH3 0x1F5 JUMP JUMPDEST SWAP2 POP POP SWAP3 POP SWAP3 SWAP1 POP JUMP JUMPDEST PUSH2 0x10DA DUP1 PUSH3 0x25E PUSH0 CODECOPY PUSH0 RETURN INVALID PUSH1 0x80 PUSH1 0x40 MSTORE CALLVALUE DUP1 ISZERO PUSH2 0xF JUMPI PUSH0 DUP1 REVERT JUMPDEST POP PUSH1 0x4 CALLDATASIZE LT PUSH2 0x55 JUMPI PUSH0 CALLDATALOAD PUSH1 0xE0 SHR DUP1 PUSH4 0xBB106EB EQ PUSH2 0x59 JUMPI DUP1 PUSH4 0x715018A6 EQ PUSH2 0x89 JUMPI DUP1 PUSH4 0x8DA5CB5B EQ PUSH2 0x93 JUMPI DUP1 PUSH4 0xF2FDE38B EQ PUSH2 0xB1 JUMPI DUP1 PUSH4 0xF4A786E4 EQ PUSH2 0xCD JUMPI JUMPDEST PUSH0 DUP1 REVERT JUMPDEST PUSH2 0x73 PUSH1 0x4 DUP1 CALLDATASIZE SUB DUP2 ADD SWAP1 PUSH2 0x6E SWAP2 SWAP1 PUSH2 0x92D JUMP JUMPDEST PUSH2 0xFD JUMP JUMPDEST PUSH1 0x40 MLOAD PUSH2 0x80 SWAP2 SWAP1 PUSH2 0x972 JUMP JUMPDEST PUSH1 0x40 MLOAD DUP1 SWAP2 SUB SWAP1 RETURN JUMPDEST PUSH2 0x91 PUSH2 0x11A JUMP JUMPDEST STOP JUMPDEST PUSH2 0x9B PUSH2 0x1A1 JUMP JUMPDEST PUSH1 0x40 MLOAD PUSH2 0xA8 SWAP2 SWAP1 PUSH2 0x9CA JUMP JUMPDEST PUSH1 0x40 MLOAD DUP1 SWAP2 SUB SWAP1 RETURN JUMPDEST PUSH2 0xCB PUSH1 0x4 DUP1 CALLDATASIZE SUB DUP2 ADD SWAP1 PUSH2 0xC6 SWAP2 SWAP1 PUSH2 0xA0D JUMP JUMPDEST PUSH2 0x1C8 JUMP JUMPDEST STOP JUMPDEST PUSH2 0xE7 PUSH1 0x4 DUP1 CALLDATASIZE SUB DUP2 ADD SWAP1 PUSH2 0xE2 SWAP2 SWAP1 PUSH2 0xA62 JUMP JUMPDEST PUSH2 0x2BE JUMP JUMPDEST PUSH1 0x40 MLOAD PUSH2 0xF4 SWAP2 SWAP1 PUSH2 0xACA JUMP JUMPDEST PUSH1 0x40 MLOAD DUP1 SWAP2 SUB SWAP1 RETURN JUMPDEST PUSH1 0x3 PUSH1 0x20 MSTORE DUP1 PUSH0 MSTORE PUSH1 0x40 PUSH0 KECCAK256 PUSH0 SWAP2 POP SLOAD SWAP1 PUSH2 0x100 EXP SWAP1 DIV PUSH1 0xFF AND DUP2 JUMP JUMPDEST PUSH2 0x122 PUSH2 0x7F6 JUMP JUMPDEST PUSH20 0xFFFFFFFFFFFFFFFFFFFFFFFFFFFFFFFFFFFFFFFF AND PUSH2 0x140 PUSH2 0x1A1 JUMP JUMPDEST PUSH20 0xFFFFFFFFFFFFFFFFFFFFFFFFFFFFFFFFFFFFFFFF AND EQ PUSH2 0x196 JUMPI PUSH1 0x40 MLOAD PUSH32 0x8C379A000000000000000000000000000000000000000000000000000000000 DUP2 MSTORE PUSH1 0x4 ADD PUSH2 0x18D SWAP1 PUSH2 0xB3D JUMP JUMPDEST PUSH1 0x40 MLOAD DUP1 SWAP2 SUB SWAP1 REVERT JUMPDEST PUSH2 0x19F PUSH0 PUSH2 0x7FD JUMP JUMPDEST JUMP JUMPDEST PUSH0 DUP1 PUSH0 SWAP1 SLOAD SWAP1 PUSH2 0x100 EXP SWAP1 DIV PUSH20 0xFFFFFFFFFFFFFFFFFFFFFFFFFFFFFFFFFFFFFFFF AND SWAP1 POP SWAP1 JUMP JUMPDEST PUSH2 0x1D0 PUSH2 0x7F6 JUMP JUMPDEST PUSH20 0xFFFFFFFFFFFFFFFFFFFFFFFFFFFFFFFFFFFFFFFF AND PUSH2 0x1EE PUSH2 0x1A1 JUMP JUMPDEST PUSH20 0xFFFFFFFFFFFFFFFFFFFFFFFFFFFFFFFFFFFFFFFF AND EQ PUSH2 0x244 JUMPI PUSH1 0x40 MLOAD PUSH32 0x8C379A000000000000000000000000000000000000000000000000000000000 DUP2 MSTORE PUSH1 0x4 ADD PUSH2 0x23B SWAP1 PUSH2 0xB3D JUMP JUMPDEST PUSH1 0x40 MLOAD DUP1 SWAP2 SUB SWAP1 REVERT JUMPDEST PUSH0 PUSH20 0xFFFFFFFFFFFFFFFFFFFFFFFFFFFFFFFFFFFFFFFF AND DUP2 PUSH20 0xFFFFFFFFFFFFFFFFFFFFFFFFFFFFFFFFFFFFFFFF AND SUB PUSH2 0x2B2 JUMPI PUSH1 0x40 MLOAD PUSH32 0x8C379A000000000000000000000000000000000000000000000000000000000 DUP2 MSTORE PUSH1 0x4 ADD PUSH2 0x2A9 SWAP1 PUSH2 0xBCB JUMP JUMPDEST PUSH1 0x40 MLOAD DUP1 SWAP2 SUB SWAP1 REVERT JUMPDEST PUSH2 0x2BB DUP2 PUSH2 0x7FD JUMP JUMPDEST POP JUMP JUMPDEST PUSH0 PUSH2 0x2C7 PUSH2 0x7F6 JUMP JUMPDEST PUSH20 0xFFFFFFFFFFFFFFFFFFFFFFFFFFFFFFFFFFFFFFFF AND PUSH2 0x2E5 PUSH2 0x1A1 JUMP JUMPDEST PUSH20 0xFFFFFFFFFFFFFFFFFFFFFFFFFFFFFFFFFFFFFFFF AND EQ PUSH2 0x33B JUMPI PUSH1 0x40 MLOAD PUSH32 0x8C379A000000000000000000000000000000000000000000000000000000000 DUP2 MSTORE PUSH1 0x4 ADD PUSH2 0x332 SWAP1 PUSH2 0xB3D JUMP JUMPDEST PUSH1 0x40 MLOAD DUP1 SWAP2 SUB SWAP1 REVERT JUMPDEST PUSH0 PUSH1 0x40 MLOAD DUP1 PUSH1 0xA0 ADD PUSH1 0x40 MSTORE DUP1 DUP6 PUSH1 0x40 MLOAD PUSH1 0x20 ADD PUSH2 0x358 SWAP2 SWAP1 PUSH2 0xC2E JUMP JUMPDEST PUSH1 0x40 MLOAD PUSH1 0x20 DUP2 DUP4 SUB SUB DUP2 MSTORE SWAP1 PUSH1 0x40 MSTORE DUP2 MSTORE PUSH1 0x20 ADD DUP5 PUSH1 0x40 MLOAD PUSH1 0x20 ADD PUSH2 0x37D SWAP2 SWAP1 PUSH2 0x972 JUMP JUMPDEST PUSH1 0x40 MLOAD PUSH1 0x20 DUP2 DUP4 SUB SUB DUP2 MSTORE SWAP1 PUSH1 0x40 MSTORE DUP2 MSTORE PUSH1 0x20 ADD PUSH0 PUSH8 0xFFFFFFFFFFFFFFFF DUP2 GT ISZERO PUSH2 0x3AB JUMPI PUSH2 0x3AA PUSH2 0xC48 JUMP JUMPDEST JUMPDEST PUSH1 0x40 MLOAD SWAP1 DUP1 DUP3 MSTORE DUP1 PUSH1 0x20 MUL PUSH1 0x20 ADD DUP3 ADD PUSH1 0x40 MSTORE DUP1 ISZERO PUSH2 0x3E4 JUMPI DUP2 PUSH1 0x20 ADD JUMPDEST PUSH2 0x3D1 PUSH2 0x8BE JUMP JUMPDEST DUP2 MSTORE PUSH1 0x20 ADD SWAP1 PUSH1 0x1 SWAP1 SUB SWAP1 DUP2 PUSH2 0x3C9 JUMPI SWAP1 POP JUMPDEST POP DUP2 MSTORE PUSH1 0x20 ADD PUSH1 0x1 PUSH0 SWAP1 SLOAD SWAP1 PUSH2 0x100 EXP SWAP1 DIV PUSH20 0xFFFFFFFFFFFFFFFFFFFFFFFFFFFFFFFFFFFFFFFF AND PUSH20 0xFFFFFFFFFFFFFFFFFFFFFFFFFFFFFFFFFFFFFFFF AND DUP2 MSTORE PUSH1 0x20 ADD PUSH1 0x40 MLOAD DUP1 PUSH1 0x20 ADD PUSH1 0x40 MSTORE DUP1 PUSH3 0x186A0 DUP2 MSTORE POP PUSH1 0x40 MLOAD PUSH1 0x20 ADD PUSH2 0x449 SWAP2 SWAP1 PUSH2 0xCA7 JUMP JUMPDEST PUSH1 0x40 MLOAD PUSH1 0x20 DUP2 DUP4 SUB SUB DUP2 MSTORE SWAP1 PUSH1 0x40 MSTORE DUP2 MSTORE POP SWAP1 POP PUSH0 PUSH1 0x2 PUSH0 SWAP1 SLOAD SWAP1 PUSH2 0x100 EXP SWAP1 DIV PUSH20 0xFFFFFFFFFFFFFFFFFFFFFFFFFFFFFFFFFFFFFFFF AND PUSH20 0xFFFFFFFFFFFFFFFFFFFFFFFFFFFFFFFFFFFFFFFF AND PUSH4 0x20487DED DUP8 DUP5 PUSH1 0x40 MLOAD DUP4 PUSH4 0xFFFFFFFF AND PUSH1 0xE0 SHL DUP2 MSTORE PUSH1 0x4 ADD PUSH2 0x4BA SWAP3 SWAP2 SWAP1 PUSH2 0xEC5 JUMP JUMPDEST PUSH1 0x20 PUSH1 0x40 MLOAD DUP1 DUP4 SUB DUP2 DUP7 GAS STATICCALL ISZERO DUP1 ISZERO PUSH2 0x4D5 JUMPI RETURNDATASIZE PUSH0 DUP1 RETURNDATACOPY RETURNDATASIZE PUSH0 REVERT JUMPDEST POP POP POP POP PUSH1 0x40 MLOAD RETURNDATASIZE PUSH1 0x1F NOT PUSH1 0x1F DUP3 ADD AND DUP3 ADD DUP1 PUSH1 0x40 MSTORE POP DUP2 ADD SWAP1 PUSH2 0x4F9 SWAP2 SWAP1 PUSH2 0xF1D JUMP JUMPDEST SWAP1 POP DUP1 PUSH1 0x1 PUSH0 SWAP1 SLOAD SWAP1 PUSH2 0x100 EXP SWAP1 DIV PUSH20 0xFFFFFFFFFFFFFFFFFFFFFFFFFFFFFFFFFFFFFFFF AND PUSH20 0xFFFFFFFFFFFFFFFFFFFFFFFFFFFFFFFFFFFFFFFF AND PUSH4 0x70A08231 ADDRESS PUSH1 0x40 MLOAD DUP3 PUSH4 0xFFFFFFFF AND PUSH1 0xE0 SHL DUP2 MSTORE PUSH1 0x4 ADD PUSH2 0x556 SWAP2 SWAP1 PUSH2 0x9CA JUMP JUMPDEST PUSH1 0x20 PUSH1 0x40 MLOAD DUP1 DUP4 SUB DUP2 DUP7 GAS STATICCALL ISZERO DUP1 ISZERO PUSH2 0x571 JUMPI RETURNDATASIZE PUSH0 DUP1 RETURNDATACOPY RETURNDATASIZE PUSH0 REVERT JUMPDEST POP POP POP POP PUSH1 0x40 MLOAD RETURNDATASIZE PUSH1 0x1F NOT PUSH1 0x1F DUP3 ADD AND DUP3 ADD DUP1 PUSH1 0x40 MSTORE POP DUP2 ADD SWAP1 PUSH2 0x595 SWAP2 SWAP1 PUSH2 0xF1D JUMP JUMPDEST LT ISZERO PUSH2 0x672 JUMPI PUSH1 0x1 PUSH0 SWAP1 SLOAD SWAP1 PUSH2 0x100 EXP SWAP1 DIV PUSH20 0xFFFFFFFFFFFFFFFFFFFFFFFFFFFFFFFFFFFFFFFF AND PUSH20 0xFFFFFFFFFFFFFFFFFFFFFFFFFFFFFFFFFFFFFFFF AND PUSH4 0x70A08231 ADDRESS PUSH1 0x40 MLOAD DUP3 PUSH4 0xFFFFFFFF AND PUSH1 0xE0 SHL DUP2 MSTORE PUSH1 0x4 ADD PUSH2 0x5F5 SWAP2 SWAP1 PUSH2 0x9CA JUMP JUMPDEST PUSH1 0x20 PUSH1 0x40 MLOAD DUP1 DUP4 SUB DUP2 DUP7 GAS STATICCALL ISZERO DUP1 ISZERO PUSH2 0x610 JUMPI RETURNDATASIZE PUSH0 DUP1 RETURNDATACOPY RETURNDATASIZE PUSH0 REVERT JUMPDEST POP POP POP POP PUSH1 0x40 MLOAD RETURNDATASIZE PUSH1 0x1F NOT PUSH1 0x1F DUP3 ADD AND DUP3 ADD DUP1 PUSH1 0x40 MSTORE POP DUP2 ADD SWAP1 PUSH2 0x634 SWAP2 SWAP1 PUSH2 0xF1D JUMP JUMPDEST DUP2 PUSH1 0x40 MLOAD PUSH32 0x3D8D9B5300000000000000000000000000000000000000000000000000000000 DUP2 MSTORE PUSH1 0x4 ADD PUSH2 0x669 SWAP3 SWAP2 SWAP1 PUSH2 0xF57 JUMP JUMPDEST PUSH1 0x40 MLOAD DUP1 SWAP2 SUB SWAP1 REVERT JUMPDEST PUSH1 0x2 PUSH0 SWAP1 SLOAD SWAP1 PUSH2 0x100 EXP SWAP1 DIV PUSH20 0xFFFFFFFFFFFFFFFFFFFFFFFFFFFFFFFFFFFFFFFF AND PUSH20 0xFFFFFFFFFFFFFFFFFFFFFFFFFFFFFFFFFFFFFFFF AND PUSH4 0x96F4E9F9 DUP3 DUP9 DUP6 PUSH1 0x40 MLOAD DUP5 PUSH4 0xFFFFFFFF AND PUSH1 0xE0 SHL DUP2 MSTORE PUSH1 0x4 ADD PUSH2 0x6CF SWAP3 SWAP2 SWAP1 PUSH2 0xEC5 JUMP JUMPDEST PUSH1 0x20 PUSH1 0x40 MLOAD DUP1 DUP4 SUB DUP2 DUP6 DUP9 GAS CALL ISZERO DUP1 ISZERO PUSH2 0x6EB JUMPI RETURNDATASIZE PUSH0 DUP1 RETURNDATACOPY RETURNDATASIZE PUSH0 REVERT JUMPDEST POP POP POP POP POP PUSH1 0x40 MLOAD RETURNDATASIZE PUSH1 0x1F NOT PUSH1 0x1F DUP3 ADD AND DUP3 ADD DUP1 PUSH1 0x40 MSTORE POP DUP2 ADD SWAP1 PUSH2 0x710 SWAP2 SWAP1 PUSH2 0xFA8 JUMP JUMPDEST SWAP3 POP DUP6 PUSH8 0xFFFFFFFFFFFFFFFF AND DUP4 PUSH32 0xAFCE261979D2C73E371096C12C07FCDF3E86C7A2D12F7C3621836FCA8B843F79 DUP8 DUP8 PUSH1 0x1 PUSH0 SWAP1 SLOAD SWAP1 PUSH2 0x100 EXP SWAP1 DIV PUSH20 0xFFFFFFFFFFFFFFFFFFFFFFFFFFFFFFFFFFFFFFFF AND DUP7 PUSH1 0x40 MLOAD PUSH2 0x774 SWAP5 SWAP4 SWAP3 SWAP2 SWAP1 PUSH2 0xFD3 JUMP JUMPDEST PUSH1 0x40 MLOAD DUP1 SWAP2 SUB SWAP1 LOG3 PUSH1 0x3 PUSH0 DUP8 PUSH8 0xFFFFFFFFFFFFFFFF AND PUSH8 0xFFFFFFFFFFFFFFFF AND DUP2 MSTORE PUSH1 0x20 ADD SWAP1 DUP2 MSTORE PUSH1 0x20 ADD PUSH0 KECCAK256 PUSH0 SWAP1 SLOAD SWAP1 PUSH2 0x100 EXP SWAP1 DIV PUSH1 0xFF AND PUSH2 0x7ED JUMPI PUSH1 0x40 MLOAD PUSH32 0x8C379A000000000000000000000000000000000000000000000000000000000 DUP2 MSTORE PUSH1 0x4 ADD PUSH2 0x7E4 SWAP1 PUSH2 0x1086 JUMP JUMPDEST PUSH1 0x40 MLOAD DUP1 SWAP2 SUB SWAP1 REVERT JUMPDEST POP POP SWAP4 SWAP3 POP POP POP JUMP JUMPDEST PUSH0 CALLER SWAP1 POP SWAP1 JUMP JUMPDEST PUSH0 DUP1 PUSH0 SWAP1 SLOAD SWAP1 PUSH2 0x100 EXP SWAP1 DIV PUSH20 0xFFFFFFFFFFFFFFFFFFFFFFFFFFFFFFFFFFFFFFFF AND SWAP1 POP DUP2 PUSH0 DUP1 PUSH2 0x100 EXP DUP2 SLOAD DUP2 PUSH20 0xFFFFFFFFFFFFFFFFFFFFFFFFFFFFFFFFFFFFFFFF MUL NOT AND SWAP1 DUP4 PUSH20 0xFFFFFFFFFFFFFFFFFFFFFFFFFFFFFFFFFFFFFFFF AND MUL OR SWAP1 SSTORE POP DUP2 PUSH20 0xFFFFFFFFFFFFFFFFFFFFFFFFFFFFFFFFFFFFFFFF AND DUP2 PUSH20 0xFFFFFFFFFFFFFFFFFFFFFFFFFFFFFFFFFFFFFFFF AND PUSH32 0x8BE0079C531659141344CD1FD0A4F28419497F9722A3DAAFE3B4186F6B6457E0 PUSH1 0x40 MLOAD PUSH1 0x40 MLOAD DUP1 SWAP2 SUB SWAP1 LOG3 POP POP JUMP JUMPDEST PUSH1 0x40 MLOAD DUP1 PUSH1 0x40 ADD PUSH1 0x40 MSTORE DUP1 PUSH0 PUSH20 0xFFFFFFFFFFFFFFFFFFFFFFFFFFFFFFFFFFFFFFFF AND DUP2 MSTORE PUSH1 0x20 ADD PUSH0 DUP2 MSTORE POP SWAP1 JUMP JUMPDEST PUSH0 DUP1 REVERT JUMPDEST PUSH0 PUSH8 0xFFFFFFFFFFFFFFFF DUP3 AND SWAP1 POP SWAP2 SWAP1 POP JUMP JUMPDEST PUSH2 0x90C DUP2 PUSH2 0x8F0 JUMP JUMPDEST DUP2 EQ PUSH2 0x916 JUMPI PUSH0 DUP1 REVERT JUMPDEST POP JUMP JUMPDEST PUSH0 DUP2 CALLDATALOAD SWAP1 POP PUSH2 0x927 DUP2 PUSH2 0x903 JUMP JUMPDEST SWAP3 SWAP2 POP POP JUMP JUMPDEST PUSH0 PUSH1 0x20 DUP3 DUP5 SUB SLT ISZERO PUSH2 0x942 JUMPI PUSH2 0x941 PUSH2 0x8EC JUMP JUMPDEST JUMPDEST PUSH0 PUSH2 0x94F DUP5 DUP3 DUP6 ADD PUSH2 0x919 JUMP JUMPDEST SWAP2 POP POP SWAP3 SWAP2 POP POP JUMP JUMPDEST PUSH0 DUP2 ISZERO ISZERO SWAP1 POP SWAP2 SWAP1 POP JUMP JUMPDEST PUSH2 0x96C DUP2 PUSH2 0x958 JUMP JUMPDEST DUP3 MSTORE POP POP JUMP JUMPDEST PUSH0 PUSH1 0x20 DUP3 ADD SWAP1 POP PUSH2 0x985 PUSH0 DUP4 ADD DUP5 PUSH2 0x963 JUMP JUMPDEST SWAP3 SWAP2 POP POP JUMP JUMPDEST PUSH0 PUSH20 0xFFFFFFFFFFFFFFFFFFFFFFFFFFFFFFFFFFFFFFFF DUP3 AND SWAP1 POP SWAP2 SWAP1 POP JUMP JUMPDEST PUSH0 PUSH2 0x9B4 DUP3 PUSH2 0x98B JUMP JUMPDEST SWAP1 POP SWAP2 SWAP1 POP JUMP JUMPDEST PUSH2 0x9C4 DUP2 PUSH2 0x9AA JUMP JUMPDEST DUP3 MSTORE POP POP JUMP JUMPDEST PUSH0 PUSH1 0x20 DUP3 ADD SWAP1 POP PUSH2 0x9DD PUSH0 DUP4 ADD DUP5 PUSH2 0x9BB JUMP JUMPDEST SWAP3 SWAP2 POP POP JUMP JUMPDEST PUSH2 0x9EC DUP2 PUSH2 0x9AA JUMP JUMPDEST DUP2 EQ PUSH2 0x9F6 JUMPI PUSH0 DUP1 REVERT JUMPDEST POP JUMP JUMPDEST PUSH0 DUP2 CALLDATALOAD SWAP1 POP PUSH2 0xA07 DUP2 PUSH2 0x9E3 JUMP JUMPDEST SWAP3 SWAP2 POP POP JUMP JUMPDEST PUSH0 PUSH1 0x20 DUP3 DUP5 SUB SLT ISZERO PUSH2 0xA22 JUMPI PUSH2 0xA21 PUSH2 0x8EC JUMP JUMPDEST JUMPDEST PUSH0 PUSH2 0xA2F DUP5 DUP3 DUP6 ADD PUSH2 0x9F9 JUMP JUMPDEST SWAP2 POP POP SWAP3 SWAP2 POP POP JUMP JUMPDEST PUSH2 0xA41 DUP2 PUSH2 0x958 JUMP JUMPDEST DUP2 EQ PUSH2 0xA4B JUMPI PUSH0 DUP1 REVERT JUMPDEST POP JUMP JUMPDEST PUSH0 DUP2 CALLDATALOAD SWAP1 POP PUSH2 0xA5C DUP2 PUSH2 0xA38 JUMP JUMPDEST SWAP3 SWAP2 POP POP JUMP JUMPDEST PUSH0 DUP1 PUSH0 PUSH1 0x60 DUP5 DUP7 SUB SLT ISZERO PUSH2 0xA79 JUMPI PUSH2 0xA78 PUSH2 0x8EC JUMP JUMPDEST JUMPDEST PUSH0 PUSH2 0xA86 DUP7 DUP3 DUP8 ADD PUSH2 0x919 JUMP JUMPDEST SWAP4 POP POP PUSH1 0x20 PUSH2 0xA97 DUP7 DUP3 DUP8 ADD PUSH2 0x9F9 JUMP JUMPDEST SWAP3 POP POP PUSH1 0x40 PUSH2 0xAA8 DUP7 DUP3 DUP8 ADD PUSH2 0xA4E JUMP JUMPDEST SWAP2 POP POP SWAP3 POP SWAP3 POP SWAP3 JUMP JUMPDEST PUSH0 DUP2 SWAP1 POP SWAP2 SWAP1 POP JUMP JUMPDEST PUSH2 0xAC4 DUP2 PUSH2 0xAB2 JUMP JUMPDEST DUP3 MSTORE POP POP JUMP JUMPDEST PUSH0 PUSH1 0x20 DUP3 ADD SWAP1 POP PUSH2 0xADD PUSH0 DUP4 ADD DUP5 PUSH2 0xABB JUMP JUMPDEST SWAP3 SWAP2 POP POP JUMP JUMPDEST PUSH0 DUP3 DUP3 MSTORE PUSH1 0x20 DUP3 ADD SWAP1 POP SWAP3 SWAP2 POP POP JUMP JUMPDEST PUSH32 0x4F776E61626C653A2063616C6C6572206973206E6F7420746865206F776E6572 PUSH0 DUP3 ADD MSTORE POP JUMP JUMPDEST PUSH0 PUSH2 0xB27 PUSH1 0x20 DUP4 PUSH2 0xAE3 JUMP JUMPDEST SWAP2 POP PUSH2 0xB32 DUP3 PUSH2 0xAF3 JUMP JUMPDEST PUSH1 0x20 DUP3 ADD SWAP1 POP SWAP2 SWAP1 POP JUMP JUMPDEST PUSH0 PUSH1 0x20 DUP3 ADD SWAP1 POP DUP2 DUP2 SUB PUSH0 DUP4 ADD MSTORE PUSH2 0xB54 DUP2 PUSH2 0xB1B JUMP JUMPDEST SWAP1 POP SWAP2 SWAP1 POP JUMP JUMPDEST PUSH32 0x4F776E61626C653A206E6577206F776E657220697320746865207A65726F2061 PUSH0 DUP3 ADD MSTORE PUSH32 0x6464726573730000000000000000000000000000000000000000000000000000 PUSH1 0x20 DUP3 ADD MSTORE POP JUMP JUMPDEST PUSH0 PUSH2 0xBB5 PUSH1 0x26 DUP4 PUSH2 0xAE3 JUMP JUMPDEST SWAP2 POP PUSH2 0xBC0 DUP3 PUSH2 0xB5B JUMP JUMPDEST PUSH1 0x40 DUP3 ADD SWAP1 POP SWAP2 SWAP1 POP JUMP JUMPDEST PUSH0 PUSH1 0x20 DUP3 ADD SWAP1 POP DUP2 DUP2 SUB PUSH0 DUP4 ADD MSTORE PUSH2 0xBE2 DUP2 PUSH2 0xBA9 JUMP JUMPDEST SWAP1 POP SWAP2 SWAP1 POP JUMP JUMPDEST PUSH0 DUP2 PUSH1 0x60 SHL SWAP1 POP SWAP2 SWAP1 POP JUMP JUMPDEST PUSH0 PUSH2 0xBFF DUP3 PUSH2 0xBE9 JUMP JUMPDEST SWAP1 POP SWAP2 SWAP1 POP JUMP JUMPDEST PUSH0 PUSH2 0xC10 DUP3 PUSH2 0xBF5 JUMP JUMPDEST SWAP1 POP SWAP2 SWAP1 POP JUMP JUMPDEST PUSH2 0xC28 PUSH2 0xC23 DUP3 PUSH2 0x9AA JUMP JUMPDEST PUSH2 0xC06 JUMP JUMPDEST DUP3 MSTORE POP POP JUMP JUMPDEST PUSH0 PUSH2 0xC39 DUP3 DUP5 PUSH2 0xC17 JUMP JUMPDEST PUSH1 0x14 DUP3 ADD SWAP2 POP DUP2 SWAP1 POP SWAP3 SWAP2 POP POP JUMP JUMPDEST PUSH32 0x4E487B7100000000000000000000000000000000000000000000000000000000 PUSH0 MSTORE PUSH1 0x41 PUSH1 0x4 MSTORE PUSH1 0x24 PUSH0 REVERT JUMPDEST PUSH0 DUP2 SWAP1 POP SWAP2 SWAP1 POP JUMP JUMPDEST PUSH2 0xC87 DUP2 PUSH2 0xC75 JUMP JUMPDEST DUP3 MSTORE POP POP JUMP JUMPDEST PUSH1 0x20 DUP3 ADD PUSH0 DUP3 ADD MLOAD PUSH2 0xCA1 PUSH0 DUP6 ADD DUP3 PUSH2 0xC7E JUMP JUMPDEST POP POP POP POP JUMP JUMPDEST PUSH0 PUSH1 0x20 DUP3 ADD SWAP1 POP PUSH2 0xCBA PUSH0 DUP4 ADD DUP5 PUSH2 0xC8D JUMP JUMPDEST SWAP3 SWAP2 POP POP JUMP JUMPDEST PUSH2 0xCC9 DUP2 PUSH2 0x8F0 JUMP JUMPDEST DUP3 MSTORE POP POP JUMP JUMPDEST PUSH0 DUP2 MLOAD SWAP1 POP SWAP2 SWAP1 POP JUMP JUMPDEST PUSH0 DUP3 DUP3 MSTORE PUSH1 0x20 DUP3 ADD SWAP1 POP SWAP3 SWAP2 POP POP JUMP JUMPDEST PUSH0 JUMPDEST DUP4 DUP2 LT ISZERO PUSH2 0xD06 JUMPI DUP1 DUP3 ADD MLOAD DUP2 DUP5 ADD MSTORE PUSH1 0x20 DUP2 ADD SWAP1 POP PUSH2 0xCEB JUMP JUMPDEST PUSH0 DUP5 DUP5 ADD MSTORE POP POP POP POP JUMP JUMPDEST PUSH0 PUSH1 0x1F NOT PUSH1 0x1F DUP4 ADD AND SWAP1 POP SWAP2 SWAP1 POP JUMP JUMPDEST PUSH0 PUSH2 0xD2B DUP3 PUSH2 0xCCF JUMP JUMPDEST PUSH2 0xD35 DUP2 DUP6 PUSH2 0xCD9 JUMP JUMPDEST SWAP4 POP PUSH2 0xD45 DUP2 DUP6 PUSH1 0x20 DUP7 ADD PUSH2 0xCE9 JUMP JUMPDEST PUSH2 0xD4E DUP2 PUSH2 0xD11 JUMP JUMPDEST DUP5 ADD SWAP2 POP POP SWAP3 SWAP2 POP POP JUMP JUMPDEST PUSH0 DUP2 MLOAD SWAP1 POP SWAP2 SWAP1 POP JUMP JUMPDEST PUSH0 DUP3 DUP3 MSTORE PUSH1 0x20 DUP3 ADD SWAP1 POP SWAP3 SWAP2 POP POP JUMP JUMPDEST PUSH0 DUP2 SWAP1 POP PUSH1 0x20 DUP3 ADD SWAP1 POP SWAP2 SWAP1 POP JUMP JUMPDEST PUSH2 0xD8B DUP2 PUSH2 0x9AA JUMP JUMPDEST DUP3 MSTORE POP POP JUMP JUMPDEST PUSH1 0x40 DUP3 ADD PUSH0 DUP3 ADD MLOAD PUSH2 0xDA5 PUSH0 DUP6 ADD DUP3 PUSH2 0xD82 JUMP JUMPDEST POP PUSH1 0x20 DUP3 ADD MLOAD PUSH2 0xDB8 PUSH1 0x20 DUP6 ADD DUP3 PUSH2 0xC7E JUMP JUMPDEST POP POP POP POP JUMP JUMPDEST PUSH0 PUSH2 0xDC9 DUP4 DUP4 PUSH2 0xD91 JUMP JUMPDEST PUSH1 0x40 DUP4 ADD SWAP1 POP SWAP3 SWAP2 POP POP JUMP JUMPDEST PUSH0 PUSH1 0x20 DUP3 ADD SWAP1 POP SWAP2 SWAP1 POP JUMP JUMPDEST PUSH0 PUSH2 0xDEB DUP3 PUSH2 0xD59 JUMP JUMPDEST PUSH2 0xDF5 DUP2 DUP6 PUSH2 0xD63 JUMP JUMPDEST SWAP4 POP PUSH2 0xE00 DUP4 PUSH2 0xD73 JUMP JUMPDEST DUP1 PUSH0 JUMPDEST DUP4 DUP2 LT ISZERO PUSH2 0xE30 JUMPI DUP2 MLOAD PUSH2 0xE17 DUP9 DUP3 PUSH2 0xDBE JUMP JUMPDEST SWAP8 POP PUSH2 0xE22 DUP4 PUSH2 0xDD5 JUMP JUMPDEST SWAP3 POP POP PUSH1 0x1 DUP2 ADD SWAP1 POP PUSH2 0xE03 JUMP JUMPDEST POP DUP6 SWAP4 POP POP POP POP SWAP3 SWAP2 POP POP JUMP JUMPDEST PUSH0 PUSH1 0xA0 DUP4 ADD PUSH0 DUP4 ADD MLOAD DUP5 DUP3 SUB PUSH0 DUP7 ADD MSTORE PUSH2 0xE57 DUP3 DUP3 PUSH2 0xD21 JUMP JUMPDEST SWAP2 POP POP PUSH1 0x20 DUP4 ADD MLOAD DUP5 DUP3 SUB PUSH1 0x20 DUP7 ADD MSTORE PUSH2 0xE71 DUP3 DUP3 PUSH2 0xD21 JUMP JUMPDEST SWAP2 POP POP PUSH1 0x40 DUP4 ADD MLOAD DUP5 DUP3 SUB PUSH1 0x40 DUP7 ADD MSTORE PUSH2 0xE8B DUP3 DUP3 PUSH2 0xDE1 JUMP JUMPDEST SWAP2 POP POP PUSH1 0x60 DUP4 ADD MLOAD PUSH2 0xEA0 PUSH1 0x60 DUP7 ADD DUP3 PUSH2 0xD82 JUMP JUMPDEST POP PUSH1 0x80 DUP4 ADD MLOAD DUP5 DUP3 SUB PUSH1 0x80 DUP7 ADD MSTORE PUSH2 0xEB8 DUP3 DUP3 PUSH2 0xD21 JUMP JUMPDEST SWAP2 POP POP DUP1 SWAP2 POP POP SWAP3 SWAP2 POP POP JUMP JUMPDEST PUSH0 PUSH1 0x40 DUP3 ADD SWAP1 POP PUSH2 0xED8 PUSH0 DUP4 ADD DUP6 PUSH2 0xCC0 JUMP JUMPDEST DUP2 DUP2 SUB PUSH1 0x20 DUP4 ADD MSTORE PUSH2 0xEEA DUP2 DUP5 PUSH2 0xE3D JUMP JUMPDEST SWAP1 POP SWAP4 SWAP3 POP POP POP JUMP JUMPDEST PUSH2 0xEFC DUP2 PUSH2 0xC75 JUMP JUMPDEST DUP2 EQ PUSH2 0xF06 JUMPI PUSH0 DUP1 REVERT JUMPDEST POP JUMP JUMPDEST PUSH0 DUP2 MLOAD SWAP1 POP PUSH2 0xF17 DUP2 PUSH2 0xEF3 JUMP JUMPDEST SWAP3 SWAP2 POP POP JUMP JUMPDEST PUSH0 PUSH1 0x20 DUP3 DUP5 SUB SLT ISZERO PUSH2 0xF32 JUMPI PUSH2 0xF31 PUSH2 0x8EC JUMP JUMPDEST JUMPDEST PUSH0 PUSH2 0xF3F DUP5 DUP3 DUP6 ADD PUSH2 0xF09 JUMP JUMPDEST SWAP2 POP POP SWAP3 SWAP2 POP POP JUMP JUMPDEST PUSH2 0xF51 DUP2 PUSH2 0xC75 JUMP JUMPDEST DUP3 MSTORE POP POP JUMP JUMPDEST PUSH0 PUSH1 0x40 DUP3 ADD SWAP1 POP PUSH2 0xF6A PUSH0 DUP4 ADD DUP6 PUSH2 0xF48 JUMP JUMPDEST PUSH2 0xF77 PUSH1 0x20 DUP4 ADD DUP5 PUSH2 0xF48 JUMP JUMPDEST SWAP4 SWAP3 POP POP POP JUMP JUMPDEST PUSH2 0xF87 DUP2 PUSH2 0xAB2 JUMP JUMPDEST DUP2 EQ PUSH2 0xF91 JUMPI PUSH0 DUP1 REVERT JUMPDEST POP JUMP JUMPDEST PUSH0 DUP2 MLOAD SWAP1 POP PUSH2 0xFA2 DUP2 PUSH2 0xF7E JUMP JUMPDEST SWAP3 SWAP2 POP POP JUMP JUMPDEST PUSH0 PUSH1 0x20 DUP3 DUP5 SUB SLT ISZERO PUSH2 0xFBD JUMPI PUSH2 0xFBC PUSH2 0x8EC JUMP JUMPDEST JUMPDEST PUSH0 PUSH2 0xFCA DUP5 DUP3 DUP6 ADD PUSH2 0xF94 JUMP JUMPDEST SWAP2 POP POP SWAP3 SWAP2 POP POP JUMP JUMPDEST PUSH0 PUSH1 0x80 DUP3 ADD SWAP1 POP PUSH2 0xFE6 PUSH0 DUP4 ADD DUP8 PUSH2 0x9BB JUMP JUMPDEST PUSH2 0xFF3 PUSH1 0x20 DUP4 ADD DUP7 PUSH2 0x963 JUMP JUMPDEST PUSH2 0x1000 PUSH1 0x40 DUP4 ADD DUP6 PUSH2 0x9BB JUMP JUMPDEST PUSH2 0x100D PUSH1 0x60 DUP4 ADD DUP5 PUSH2 0xF48 JUMP JUMPDEST SWAP6 SWAP5 POP POP POP POP POP JUMP JUMPDEST PUSH32 0x44657374696E6174696F6E20636861696E206E6F7420616C6C6F776C69737465 PUSH0 DUP3 ADD MSTORE PUSH32 0x6400000000000000000000000000000000000000000000000000000000000000 PUSH1 0x20 DUP3 ADD MSTORE POP JUMP JUMPDEST PUSH0 PUSH2 0x1070 PUSH1 0x21 DUP4 PUSH2 0xAE3 JUMP JUMPDEST SWAP2 POP PUSH2 0x107B DUP3 PUSH2 0x1016 JUMP JUMPDEST PUSH1 0x40 DUP3 ADD SWAP1 POP SWAP2 SWAP1 POP JUMP JUMPDEST PUSH0 PUSH1 0x20 DUP3 ADD SWAP1 POP DUP2 DUP2 SUB PUSH0 DUP4 ADD MSTORE PUSH2 0x109D DUP2 PUSH2 0x1064 JUMP JUMPDEST SWAP1 POP SWAP2 SWAP1 POP JUMP INVALID LOG2 PUSH5 0x6970667358 0x22 SLT KECCAK256 PUSH28 0xEF1CA42795D87E4C0277F69E81699724FC2DD9A7306CC1CA631F15AF 0x4B MSIZE 0xD0 PUSH5 0x736F6C6343 STOP ADDMOD AND STOP CALLER "
				},
				"gasEstimates": {
					"creation": {
						"codeDepositCost": "862800",
						"executionCost": "infinite",
						"totalCost": "infinite"
					},
					"external": {
						"allowlistedChains(uint64)": "2769",
						"owner()": "2537",
						"renounceOwnership()": "30366",
						"send_message(uint64,address,bool)": "infinite",
						"transferOwnership(address)": "30751"
					}
				},
				"methodIdentifiers": {
					"allowlistedChains(uint64)": "0bb106eb",
					"owner()": "8da5cb5b",
					"renounceOwnership()": "715018a6",
					"send_message(uint64,address,bool)": "f4a786e4",
					"transferOwnership(address)": "f2fde38b"
				}
			},
			"storageLayout": {
				"storage": [
					{
						"astId": 424,
						"contract": "contracts/ccip/Sender.sol:Sender",
						"label": "_owner",
						"offset": 0,
						"slot": "0",
						"type": "t_address"
					},
					{
						"astId": 566,
						"contract": "contracts/ccip/Sender.sol:Sender",
						"label": "s_linkToken",
						"offset": 0,
						"slot": "1",
						"type": "t_contract(LinkTokenInterface)416"
					},
					{
						"astId": 569,
						"contract": "contracts/ccip/Sender.sol:Sender",
						"label": "s_router",
						"offset": 0,
						"slot": "2",
						"type": "t_contract(IRouterClient)51"
					},
					{
						"astId": 587,
						"contract": "contracts/ccip/Sender.sol:Sender",
						"label": "allowlistedChains",
						"offset": 0,
						"slot": "3",
						"type": "t_mapping(t_uint64,t_bool)"
					}
				],
				"types": {
					"t_address": {
						"encoding": "inplace",
						"label": "address",
						"numberOfBytes": "20"
					},
					"t_bool": {
						"encoding": "inplace",
						"label": "bool",
						"numberOfBytes": "1"
					},
					"t_contract(IRouterClient)51": {
						"encoding": "inplace",
						"label": "contract IRouterClient",
						"numberOfBytes": "20"
					},
					"t_contract(LinkTokenInterface)416": {
						"encoding": "inplace",
						"label": "contract LinkTokenInterface",
						"numberOfBytes": "20"
					},
					"t_mapping(t_uint64,t_bool)": {
						"encoding": "mapping",
						"key": "t_uint64",
						"label": "mapping(uint64 => bool)",
						"numberOfBytes": "32",
						"value": "t_bool"
					},
					"t_uint64": {
						"encoding": "inplace",
						"label": "uint64",
						"numberOfBytes": "8"
					}
				}
			},
			"userdoc": {
				"kind": "user",
				"methods": {},
				"version": 1
			}
		}
	}
}